:100000000C94A1010C94BE010C94BE010C94BE0191
:100010000C94BE010C94BE010C94BE010C9481039F
:100020000C94BE010C94BE010C94BE010C94BE0154
:100030000C94BE010C94BE010C94BE010C94BE0144
:100040000C94BE010C94BE010C94BE010C94BE0134
:100050000C94BE010C94BE010C94BE010C94BE0124
:100060000C94BE010C94BE01485454502F312E30D4
:100070002034303120556E617574686F72697A650D
:10008000640D0A436F6E74656E742D547970653A11
:1000900020746578742F68746D6C0D0A0D0A3C68C5
:1000A000313E34303120556E617574686F72697AF3
:1000B00065643C2F68313E003C68313E3230302070
:1000C0004F4B3C2F68313E002F6367692D62696E8C
:1000D0002F68656C6C6F2E706C007777772E727559
:1000E0006564696865696D6C69636865722E6368CB
:1000F000000A3C2F7072653E3C62723E3C68723E64
:100100000009000A7765625F636C69656E745F73EE
:10011000656E646F6B3A0A200009000A7365633AE2
:100120000A20000900090009000A70696E677372ED
:100130006369703A0A20000900090009000A6F7417
:10014000686572736964655F7777775F69703A0A8B
:1001500020000A4E756D6265722073756363657366
:100160007366756C20646174612075706C6F616476
:100170007320746F207765623A2000486F6D653A8E
:10018000204E756D626572206F6620646174612017
:1001900075706C6F61647320737461727465642030
:1001A00062792070696E673A20002028303D6E6FBA
:1001B000206572726F72290A004572726F72206335
:1001C0006F64653A200077616974696E6720666FB5
:1001D0007220444E5320616E737765722E0A0020A0
:1001E000746F20616E73776572206172702E0A00E1
:1001F00077616974696E6720666F722047572000C7
:100200003C68323E77656220636C69656E7420736A
:10021000746174757320686F6D653C2F68323E0A97
:100220003C7072653E0A00485454502F312E3020E5
:10023000323030204F4B0D0A436F6E74656E742D53
:10024000547970653A20746578742F68746D6C0DFC
:100250000A507261676D613A206E6F2D6361636849
:10026000650D0A0D0A000D0A436F6E74656E742DDC
:10027000547970653A206170706C69636174696F5C
:100280006E2F782D7777772D666F726D2D75726C66
:10029000656E636F6465640D0A0D0A00436F6E74CA
:1002A000656E742D4C656E6774683A20000D0A55B2
:1002B0007365722D4167656E743A207467722F31D1
:1002C0002E310D0A4163636570743A202A2F2A0D7E
:1002D0000A000D0A0020485454502F312E310D0AC7
:1002E000486F73743A2000504F535420000D0A5544
:1002F0007365722D4167656E743A207467722F3191
:100300002E310D0A4163636570743A207465787408
:100310002F68746D6C0D0A0D0A0020485454502F3C
:10032000312E310D0A486F73743A2000474554202E
:1003300000000108000604000145000082000040A2
:10034000002011241FBECFEFD8E0DEBFCDBF11E0EB
:10035000A0E0B1E0E0E6F4E202C005900D92AC331B
:10036000B107D9F724E0ACE3B1E001C01D92A4339A
:10037000B207E1F70E9459100C942E120C94000061
:100380002091420121110CC021E020934201FC0187
:10039000A3E4B1E081918D9381E0A734B807D1F750
:1003A0000895883C910531F4809140018F5F8093DE
:1003B0004001299A0895613049F4FA01ABEEB3E0A7
:1003C00081918D9383E0A13FB807D1F7089547E26B
:1003D00052E060E070E087E491E00E94A405089597
:1003E000A1E1B0E0E6EFF1E00C9465117C010E9420
:1003F000E70140E052E0BC01C7010E94A405BC0136
:1004000080913C018130C9F440EF51E0C7010E9466
:10041000A4056C010AE02EE244E060E071E0CE0148
:1004200001960E94F20EAE014F5F5F4FB601C70109
:100430000E94C5054FED51E047C180913D018130DB
:1004400011F546EC51E0C7010E94A4056C010E9421
:10045000380F182F49EB51E0B601C7010E94A405DF
:100460006C014AE0BE016F5F7F4F812F90E00E94D8
:10047000F111AE014F5F5F4FB601C7010E94C50584
:100480004AEA51E021C14BE751E0C7010E94A405AF
:100490006C01809141014AE0BE016F5F7F4F90E0A7
:1004A0000E94F111AE014F5F5F4FB601C7010E947C
:1004B000C50542E551E0BC01C7010E94A4056C01DD
:1004C000809140014AE0BE016F5F7F4F90E00E9443
:1004D000F111AE014F5F5F4FB601C7010E94C50524
:1004E0004DE351E0BC01C7010E94A4056C0180915D
:1004F000E7034AE0BE016F5F7F4F90E00E94F11179
:10050000AE014F5F5F4FB601C7010E94C5054BE3C7
:1005100051E0BC01C7010E94A4056C018091E80371
:100520004AE0BE016F5F7F4F90E00E94F111AE0183
:100530004F5F5F4FB601C7010E94C50549E351E017
:10054000BC01C7010E94A4056C018091E9034AE047
:10055000BE016F5F7F4F90E00E94F111AE014F5FCF
:100560005F4FB601C7010E94C50547E351E0BC01DA
:10057000C7010E94A4056C018091EA034AE0BE0114
:100580006F5F7F4F90E00E94F111AE014F5F5F4FB0
:10059000B601C7010E94C50549E251E0BC01C7018F
:1005A0000E94A4056C01809143014AE0BE016F5F87
:1005B0007F4F90E00E94F111AE014F5F5F4FB60197
:1005C000C7010E94C50547E251E0BC01C7010E9476
:1005D000A4056C01809144014AE0BE016F5F7F4F2A
:1005E00090E00E94F111AE014F5F5F4FB601C7016D
:1005F0000E94C50545E251E0BC01C7010E94A40567
:100600006C01809145014AE0BE016F5F7F4F90E031
:100610000E94F111AE014F5F5F4FB601C7010E940A
:10062000C50543E251E0BC01C7010E94A4056C016D
:10063000809146014AE0BE016F5F7F4F90E00E94CB
:10064000F111AE014F5F5F4FB601C7010E94C505B2
:100650004BE151E0BC01C7010E94A4056C018091EF
:100660003F014AE0BE016F5F7F4F90E00E94F111B1
:10067000AE014F5F5F4FB601C7010E94C50549E15A
:1006800051E0BC01C7010E94A40543E051E0BC0158
:10069000C7010E94A4056C01809140014AE0BE019F
:1006A0006F5F7F4F90E00E94F111AE014F5F5F4F8F
:1006B000B601C7010E94C50541E051E0BC01C70178
:1006C0000E94A40541EF50E0BC01C7010E94A405AF
:1006D0006196E8E00C94811110923E01E4E6F0E0AE
:1006E00080818F7B808382E0809370001092B200C3
:1006F00094EF9093B3008093B00087E08093B100B3
:1007000008951F920F920FB60F9211248F9380912C
:100710003E018F5F80933E0180913E01833338F02C
:1007200010923E0180913F018F5F80933F018F9136
:100730000F900FBE0F901F901895A0E0B0E0E3EA75
:10074000F3E00C9463116A0159019091090489172F
:1007500059F0E0910604F091070440E050E060E0B9
:1007600070E084EF91E03DC061113CC02D30310557
:10077000C8F1E0900604F0900704E114F10491F14F
:10078000C091FA03D091FB03C40FD51F888590E078
:100790000E94C411892B01F1898590E0C0978A30AD
:1007A0009105D0F40B8510E0005311090A301105B2
:1007B00098F44AE0489F9001499F300D1124AA8582
:1007C000B0E0D097A20FB31F4A9FC0014B9F900D7E
:1007D0001124800F911F02C080E090E0A501B601B6
:1007E000F701099580E0CDB7DEB7EAE00C947F1100
:1007F000FF920F931F93CF93DF93FB01413051F48E
:10080000AB014850510960E070E04F5E5F4F6F4FA1
:100810007F4F0FC0423051F4AB014850510960E0A6
:1008200070E04A5F5F4F6F4F7F4F03C040E050E082
:10083000BA01EF01DC01C230D10598F00C9110E053
:1008400020E030E0322F212F102F00271196FC904E
:1008500011970F29400F511F621F731F1296229785
:10086000EACFDF01AE7FA80FB91FE0FF0CC08C916B
:1008700090E0A0E0B0E0BA2FA92F982F8827480F6A
:10088000591F6A1F7B1FCB01AA27BB270097A10511
:10089000B10519F066277727F2CFCA0180959095A8
:1008A000CDB7DEB7E5E00C948411009741F026E067
:1008B000FC01A2E2B4E001900D922A95E1F70895BF
:1008C000009721F46115710559F40895DC01EEE1FA
:1008D000F4E08D91819384E0E232F807D1F7F2CF12
:1008E000DB01EFE0F1E08D91819381E0E331F807E6
:1008F000D1F70895CF93DF93EEE1F4E0AFE0B1E0FC
:10090000EC014991CE0121913D912427232331F41B
:10091000D4E0E232FD07A1F780E001C081E0DF9181
:10092000CF910895DC015A96FB0180E02D919191C1
:10093000291305C08F5F8430C9F781E0089580E0F6
:10094000089569327105A8F0FC012485283089F4E6
:100950002585263071F4DC019696EEE1F4E09D9158
:100960008191981306C084E0E232F807C1F781E074
:10097000089580E00895FC016A327105B0F0848525
:10098000883099F48585811110C08685853469F495
:100990007E96AEE1B4E091918D91981306C084E00B
:1009A000A232B807C1F781E0089580E00895CF939F
:1009B000DF93E2E2F4E0DC0116962C91EC0129933E
:1009C000CE0121912D93D4E0E832FD07B1F7DF91FC
:1009D000CF910895CF93DF93EC01188E198E80E4A8
:1009E0008C8B1D8A8E8B40E064E170E0CE010E9608
:1009F0000E94F803988F898FDF91CF910895CF934C
:100A0000DF93EC016E96EEE1F4E0DC015A962C9156
:100A1000299321912D9324E0E232F207C1F70E943D
:100A2000EA04DF91CF910895FC01BA96DC019E960D
:100A300086962291620F711D2E916C93442311F0C2
:100A4000208301C01082672F7727E817F90789F7FD
:100A50000895CF93DF93EC018CA19AA19CA38AA364
:100A60008DA19BA19DA38BA3CE010E9414051AAA60
:100A70001BAA80E58EA7DF91CF910895CF93DF93D6
:100A8000EC010E94D7041C8A82E08D8BCE018096F7
:100A900042E254E0DE0156962C91FC012193CF01F5
:100AA000FA012191AF012D93F4E048325F07A1F7DD
:100AB000CE0186964EE154E0DE015C962C91FC015D
:100AC0002193CF01FA012191AF012D93F4E042323D
:100AD0005F07A1F7BE018AE290E00E94FB0CDF9164
:100AE000CF9108950F931F93CF93DF93EC018B0168
:100AF0000E94D704CE010E94FF041AA29CA1983F35
:100B000018F08DA18F5F8DA3985F9CA3BE01C801D3
:100B10000E94FB0CDF91CF911F910F910895FC0172
:100B2000808990E0982F88272189822B449726A5D9
:100B300022952F7034E0239F80199109112497FF8B
:100B400002C080E090E008959C01CB01461B570B4A
:100B5000FA01E80FF91FE491EE2339F0D901A80F4B
:100B6000B91FD696EC930196F3CF0895DB01D69684
:100B7000A80FB91FFA01420F4E1719F081918D93FA
:100B8000FBCFCB01820F911D0895FA010190002047
:100B9000E9F79F0121503109241B350B0E94B6054E
:100BA0000895A5E0B0E0E7EDF5E00C9467119091B1
:100BB00009048913A4C0809108040091FA031091DC
:100BC000FB0381112CC04CE253E060E070E0C801EF
:100BD0000E94A4054091000450910104BC01C80189
:100BE0000E94A4054091FE035091FF03BC01C8017F
:100BF0000E94C5054AE153E0BC01C8010E94A4055A
:100C00004091FC035091FD03BC01C8010E94A40562
:100C10004DEE52E0BC01C8010E94A40572C047EE2F
:100C200052E060E070E0C8010E94A4054091000419
:100C300050910104BC01C8010E94A4054091FE032B
:100C40005091FF03BC01C8010E94C50545ED52E06B
:100C5000BC01C8010E94A4054091FC035091FD0312
:100C6000BC01C8010E94A405E0900404F0900504B2
:100C7000E114F10459F042ED52E0BC01C8010E94B8
:100C8000A405A701BC01C8010E94A4054DEA52E0D9
:100C9000BC01C8010E94A4054CE952E0BC01C80196
:100CA0000E94A4057C01A0910204B0910304FD01FF
:100CB00001900020E9F731974AE0BE016F5F7F4F56
:100CC000CF018A1B9B0B0E94F1110091FA03109136
:100CD000FB03AE014F5F5F4FB701C8010E94C5051E
:100CE00046E652E0BC01C8010E94A40540910204FE
:100CF00050910304BC01C8010E94C50502C080E0F8
:100D000090E02596E6E00C948311A3E0B0E0EBE8D8
:100D1000F6E00C9469118C014B8369837A830E94FD
:100D2000D7044B81842F8061F80187A769817A817C
:100D3000443029F06115710511F461E070E041E083
:100D4000C8010E942905F801108A88E2818BC80138
:100D50000E94FF0484E0F80180AB11AA42E06CE13C
:100D600070E0C8014A960E94F803F80192AB83AB89
:100D7000B80186E390E00E94FB0C2396E4E00C941B
:100D800085110F931F93CF93DF93EC018B01CB0160
:100D90008896988B898BCE010E94EA041AAA1BAA16
:100DA000B801645E7F4F42E0CE014A960E94F8038C
:100DB0009AAB8BABBE01C801C6960E94FB0CDF91BB
:100DC000CF911F910F9108956115710519F4009746
:100DD00059F40895DB01EEE1F4E02D91219324E034
:100DE000E232F207D1F7F3CF0E94550408959093B1
:100DF000F303809313010895CF93DF93EC010E94D6
:100E0000D704188A8CE2898BCE010E94FF0482E10C
:100E10008FA740E061E070E0CE010E9429051EA28C
:100E20001FA28091170188A719A68D5F80931701D3
:100E300082E08EAB84E08FAB85E088AF19AE80E6B0
:100E40008EA78AE088AB19AA42E060E270E0CE018A
:100E50004A960E94F8039AAB8BABBE018AE390E0FE
:100E60000E94FB0CDF91CF9108950F931F93CF93B6
:100E7000DF93EC018B016091F1037091F20340E08C
:100E80000E94850689E18FA7B801CE010E94C106A4
:100E9000DF91CF911F910F910895640F751F461731
:100EA000570741F0FA012491FC012193CF014F5FD4
:100EB0005F4FF5CF0895A2E0B0E0E1E6F7E00C94D3
:100EC00063115C01F62EE72E6A01E2E2F4E0B5015F
:100ED0006A5F7F4FD8014D918D01DC014D93CD01AB
:100EE0004191DB014D93BD01B4E0E832FB0791F77E
:100EF00088E0F5018487158649E353E069E070E0F6
:100F0000C5010E9629833A830E944D0780910E01F8
:100F1000D50153968C9353978F5F80930E01509613
:100F20001C92509781E157968C938601C5014E968D
:100F3000AEE1B4E03A812981F80141918F01FC01D1
:100F40004193CF016D91AF0145505109FA01608382
:100F5000F4E0A232BF0781F7D50194963C939497B1
:100F600095962C9395979296EC9292979396FC92E5
:100F7000939796961C92969798961C929897999606
:100F80001C922296EAE00C947F110F931F93CF934B
:100F9000DF93EC018B01CB014C96898B988BCE01B2
:100FA0000E94EA04C80108968FA39EA3B801605F5F
:100FB0007F4F41E0CE014A960E94F80389A798A787
:100FC000BE01C8018A960E94FB0CDF91CF911F9150
:100FD0000F910895A0E0B0E0E0EFF7E00C9462110B
:100FE000EC01B62EA72E942EB901A8019701860117
:100FF0000E945B07692D6D3D08F06CED9B2DDE01B5
:101000009A96EB2DFA2D8E2F891B861718F4819155
:101010008D93F9CF70E0CE010E94C507CDB7DEB742
:10102000EBE00C947E110F931F93CF93DF93EC01B1
:101030008B0180911E04882309F448C0CE01AE01C3
:101040004A5F5F4FE2E2F4E03FEFDC013D93CD0108
:101050002191DA012D93AD01B4E0E832FB07A9F745
:1010600088E08C8786E08D8741E353E068E070E09C
:10107000CE010E960E944D07DE01909642E254E0AA
:10108000FA012191AF01CD010A97FC0120831D9245
:10109000F4E048325F07A1F7B801CE018696AEE1D1
:1010A000B4E0FB012191BF01FC012193CF014D91DF
:1010B0009F012B503109F9014083F4E0A232BF07B0
:1010C00081F7BE018AE290E00E94FB0CDF91CF9194
:1010D0001F910F91089581E09091F503923009F4EA
:1010E00080E00895509333044093320421E020932C
:1010F000F5036093F403E6EFF3E0DC012D91CD01FD
:101100002193B3E0EA3FFB07C1F70895FF920F93E5
:101110001F93CF93DF93EC01162F042FF52EE1E1FF
:10112000F4E09C0182E294E0BE016A5F7F4F41914E
:10113000D9014D939D01DC014D91CD01DB014D9312
:10114000BD01B4E0E731FB0791F788E08C871D868D
:1011500049E353E069E070E0CE010E960E944D072E
:101160008CE2898B80910E018B8B8F5F80930E01B7
:1011700086E08F8B67E174E0DE015E968EE194E09D
:10118000FB012191BF012D93FC014191CF019D01F4
:1011900025503109F9014083F4E06B317F0781F775
:1011A000CE010E94EA04FCA20DA38BE08AA31BA33C
:1011B000FE01B69688E011928150E9F780911701FF
:1011C00088A78D5F8093170180E68EA782E08FA7A6
:1011D00093E098AB19AA1AAA1BAA1CAA1DAA8EAB47
:1011E00094E09FAB88AF8EEE89AF42E060E270E0A2
:1011F000CE014A960E94F8039AAB8BABBE018AE3FC
:1012000090E00E94FB0CCDB7DEB7E5E00C948411B2
:101210000F931F9390930D0480930C0470930B0411
:1012200060930A04F901A7E1B4E081918D9384E011
:10123000AB31B807D1F7F801A1E1B4E081918D930A
:1012400084E0A731B807D1F750930F0440930E0400
:1012500081E08093100480911B048F5F883018F424
:1012600080931B0402C010921B0480911B041F91E9
:101270000F910895A0E0B0E0E0E4F9E00C945F1174
:10128000EC016B015A013901480187010E94F40CFD
:101290008823E9F0D0930104C0930004D092FF03A7
:1012A000C092FE03B092FD03A092FC0310920804CA
:1012B0007092070460920604940140E550E061EDED
:1012C00075E08DE993E00E94080980930904CDB789
:1012D000DEB7EEE00C947B11A0E0B0E0E2E7F9E0CD
:1012E0000C945D11EC014B013A0129010E94F40CB0
:1012F000882339F1D0930104C09300047092FD0358
:101300006092FC039092FF038092FE0350920504CA
:1013100040920404109303040093020481E080933C
:101320000804F0920704E09206048501960140E566
:1013300050E061ED75E08DE993E00E94080980932B
:101340000904CDB7DEB7E0E10C94791190931D0448
:1013500080931C040895A1E0B0E0E1EBF9E00C9467
:1013600065116C018B016115710509F054C0809104
:10137000F503893079F48091140190911501892B3E
:1013800049F40E94F40C882329F066EF73E0C6014B
:101390000E9413088091F503813091F40E94F40CAF
:1013A000882371F066EF73E0C6010E9413088091F4
:1013B000F50388608093F5031092150110921401D3
:1013C00080911401909115010196909315018093DD
:1013D000140180911004813009F061C10E94F40C65
:1013E000882309F45CC182E08093100460911601A7
:1013F0006F5F6093160140910E0450910F046F715E
:1014000080911B0420E2829FC0011124682BC60139
:101410000E94860844C10E94A104882359F1D60184
:1014200055968C91813019F4C6010E943E05809139
:10143000F50383FF34C1F6011589123009F02FC17D
:1014400044E050E066EF73E0C6014C960E94CB1179
:10145000892B09F024C1A6014A5E5F4FE091320456
:10146000F09133046091F40386EF93E009951093B3
:10147000F50315C1B801C6010E94BB04882309F415
:101480000EC1D60157968C915797813099F4929658
:101490008C91883009F003C1E0911C04F0911D0487
:1014A000309719F0C6014A960995B801C6010E9405
:1014B0007205F5C00633110508F4F1C0863009F055
:1014C000EEC0F60184A18B3009F0C6C0D092FB03B8
:1014D000C092FA0367E174E0C6010E949204882377
:1014E00009F4DDC0D6019F962C919F9722FF13C06F
:1014F000E0910C04F0910D04309709F488C09596A2
:101500008C9120E030E040E050E063E082958695E9
:10151000877009957CC0C60129830E948F057C01D4
:10152000809110042981823099F5822F8071227177
:10153000223109F540E060E070E0C6010E948506B6
:1015400088E1F60187A7E0910A04F0910B04309737
:1015500041F0D60193968C91829586958770099576
:1015600002C080E090E023E020931004BC01C6019B
:101570000E94C10694C091E090931004811104C0B0
:10158000B7016F5F7F4F02C060E070E044E084C04D
:101590008330A9F5E114F10491F184E08093100403
:1015A000E0910C04F0910D04309749F1D6019E961C
:1015B0004C9142954F70B4E04B9FA0011124C8019B
:1015C00008974E5D5F4F8417950708F4AC01C7017B
:1015D000840F951F0817190720F49801241B350B59
:1015E00001C09701D60195968C9160E08295869511
:1015F00087700995882319F049E0B70120C09091C0
:101600001004F60187A5953021F484FF48C086E0D8
:101610001AC0963071F484FD04C0B7016F5F7F4F2C
:1016200002C060E070E044E0C6010E94850687E0E9
:101630000AC080FF0BC0B7016F5F7F4F41E0C6015A
:101640000E94850685E08093100429C0E114F1040E
:1016500031F140E0B70120C09091F30389131FC01E
:1016600095A18091130198131AC0F7A4F1FE04C04C
:10167000C6010E94FC0613C0F4FE11C0C6010E9400
:101680008F059093F2038093F103892B59F4F0FEB8
:1016900006C040E060E070E0C6010E94850680E080
:1016A00090E010C0F60126A522952F70F4E02F9F40
:1016B000900111242E5D3F4F0850110902171307A6
:1016C00070F3C9012196E8E00C9481112A98962FB5
:1016D0009F71982B9EBD0DB407FEFDCF1EBC0DB4AF
:1016E00007FEFDCF67FD03C02A9A8EB508951EBC84
:1016F0000DB407FEFDCFF8CF2A986F71682B6EBD31
:101700000DB407FEFDCF4EBD0DB407FEFDCF2A9AE6
:101710000895FB012A982AE32EBD0DB407FEFDCFE4
:101720008E0F9F1FE817F90739F01EBC0DB407FE96
:10173000FDCF2EB52193F6CF10822A9A08952A98CC
:101740002AE72EBD0DB407FEFDCF860F971F681741
:10175000790741F0FB012191BF012EBD0DB407FEB9
:10176000FDCFF5CF2A9A08951F93CF93DF93182FBB
:101770001076C12FD0E020912A0430E0C217D307A1
:1017800089F043E06FE180EA0E947C0BAE0185E0C6
:10179000559547958A95E1F76FE180E80E947C0BAB
:1017A00010932A04DF91CF911F910895A1E0B0E03A
:1017B000ECEDFBE00C946B11682F69830E94B40B75
:1017C000698180E00E94660B2196E2E00C9487110B
:1017D000A1E0B0E0EEEEFBE00C946A11182F6983F3
:1017E0000E94B40B4981612F80E40E947C0B2196FA
:1017F000E3E00C948611CF93682F84ED0E94E80BF0
:1018000061E082ED0E94E80B8AEE0E94D60B80FD1B
:10181000FBCF60E082ED0E94E80B89ED0E94D60BC1
:10182000C82F88ED0E94D60B2C2F30E0322F2227B4
:10183000A901482BCA01CF910895A1E0B0E0E3E2ED
:10184000FCE00C946A11162F682F84ED79830E94B6
:10185000E80B612F86ED0E94E80B7981672F87EDF9
:101860000E94E80B18E28AEE0E94D60B80FF04C0AB
:10187000812F8A95F1F7F7CF2196E3E00C9486113A
:10188000682F677085E70E94E80B0895CF93DF9378
:10189000EC01229A2A9A84B1886284B924982B9800
:1018A0002D9880E58CBD8DB581608DBD4FEF60E0DA
:1018B0008FEF0E947C0B80E090E00197F1F710928F
:1018C00029041092280460E088E00E94E80B60E0A0
:1018D00089E00E94E80B60E08CE00E94E80B60E089
:1018E0008DE00E94E80B6FEF8AE00E94E80B69E14F
:1018F0008BE00E94E80B60E084E00E94E80B6AE164
:1019000085E00E94E80B6FEF86E00E94E80B6FE134
:1019100087E00E94E80B60EB88E30E94E80B6FE32E
:1019200088E20E94E80B60E389E20E94E80B69EF1D
:1019300080E30E94E80B67EF81E30E94E80B6DE013
:1019400080EC0E94E80B60E081EC0E94E80B42E32F
:1019500062EC80E80E947C0B62E186EC0E94E80B5E
:101960006CE087EC0E94E80B62E184EC0E94E80BDB
:101970006CED8AEC0E94E80B65E08BEC0E94E80BB2
:10198000688184EE0E94E80B698185EE0E94E80B75
:101990006A8182EE0E94E80B6B8183EE0E94E80B65
:1019A0006C8180EE0E94E80B6D8181EE0E94E80B55
:1019B00060E071E080E10E941D0C8FE10E94B40B99
:1019C00040EC6BE180E80E947C0B44E06FE180E832
:1019D0000E947C0BDF91CF91089582E70E94D60B85
:1019E000863008F08F5F089581E10E94FB0B92FB27
:1019F000882780F908950F931F93CF93DF93EC010D
:101A00008B016FE180E00E94660B83FDFACF8CE1D1
:101A10000E94D60B81FF13C040E86FE180E80E946E
:101A20007C0B40E86FE180EA0E947C0B42E06CE1B5
:101A300080EA0E947C0B80E395E70197F1F760E074
:101A400082E00E94E80B6AE183E00E94E80B6C2FC1
:101A500086E00E94E80BCE01965E692F87E00E9427
:101A6000E80B40E060E08AE70E947C0BB801CE0101
:101A70000E949F0B48E06FE180E80E947C0BDF91A1
:101A8000CF911F910F91089589E30E94D60B91E0A9
:101A9000811101C090E0892F0895A0E0B0E0E3E556
:101AA000FDE00C9462117C016B0189E30E94D60B6E
:101AB000882309F45CC060912804C091290480E067
:101AC0000E94E80B6C2F81E00E94E80B60E08AE343
:101AD0000E94660B082F60E08AE30E94660B10E00C
:101AE000182B109329040093280460E08AE30E94D5
:101AF000660BC82F60E08AE30E94660B982E60E0B8
:101B00008AE30E94660BA82EB12C60E08AE30E9453
:101B1000660BA7FE0FC0970121503109D0E0D929EB
:101B200024972C173D0708F4E901B601CE010E9465
:101B3000890B02C0C0E0D0E06FEF01308AE11807E6
:101B40002CF08CE00E94E80B69E107C0600F8CE08C
:101B50000E94E80B01501109612F8DE00E94E80BF3
:101B600040E46EE180E80E947C0BCE0102C080E080
:101B700090E0CDB7DEB7EBE00C947E11CF93DF930E
:101B8000FC01D90180E09081592F5F7D39F48130CB
:101B9000D1F5DB0150E0415051092EC09D30B9F321
:101BA0008111F5CF5C9195131BC0A217B30739F4CF
:101BB000EF01219798819F3311F0963291F411969D
:101BC0009C911197992311F011960BC0EF0121966A
:101BD00081E091819D3309F080E0D901FE0101C0CF
:101BE000D9013196D0CF9D3069F0963259F030E06E
:101BF000241735073CF49D932A2F261B9191392FEA
:101C00003F7D89F71C92DF91CF91089590ED980F59
:101C10009A3060F09FE9980F963010F48755089538
:101C20009FEB980F963020F487530895892F0895DD
:101C300080E00895A0E0B0E0E0E2FEE00C946611E0
:101C4000EC018C0188818823E1F08B32A1F0853290
:101C500099F47E0182E0E80EF11C89810E94060E53
:101C6000D82E8A810E94060E90E1D99E90011124FF
:101C7000822BE70101C080E2F80181938F01219658
:101C8000E1CFF8011082CDB7DEB7E7E00C94821106
:101C9000FB01982F9F709A3014F4905D01C0995AFF
:101CA000918382958F708A3014F4805D01C0895AC7
:101CB000808312820895AF92BF92DF92EF92FF92DB
:101CC0000F931F93CF93DF931F92CDB7DEB75B01C6
:101CD0008C0185E2D82EF80121918F012223F9F0A1
:101CE000C50101967C01203259F0822F992787FD8A
:101CF000909529830E94B0112981892B11F405C088
:101D00002BE2F50120835701E6CFF501D082B70120
:101D1000822F0E94480EF3E0AF0EB11CDCCFF5011C
:101D200010820F90DF91CF911F910F91FF90EF9054
:101D3000DF90BF90AF900895A5E0B0E0E2EAFEE04A
:101D40000C9465118C01FC011082118212821382A5
:101D50007B0130E020E0F70141917F01442361F1F4
:101D60003430D8F5233090F4842F992787FD90954F
:101D7000C0970A9748F4E1E0F0E0EC0FFD1FE20F96
:101D8000F11D40832F5F02C0222329F34E3219F741
:101D9000E1E0F0E0EC0FFD1FE20FF11D10826801A1
:101DA000C30ED11CCE0101963D830E949211F60113
:101DB00080833D813F5FCECF333079F4E1E0F0E0C6
:101DC000EC0FFD1FE20FF11D1082CE0101960E9463
:101DD0009211F801838380E001C081E02596E8E05C
:101DE0000C9481118F929F92BF92CF92DF92EF92CB
:101DF000FF920F931F93CF93DF931F92CDB7DEB760
:101E00007C01C42EB62E4B01D12C10E0882D8B19ED
:101E10008C15C8F4F40181914F01A801B7016D0D33
:101E2000711D90E029830E94E6112981F701ED0DD3
:101E3000F11D8081882311F0D394F8CF222331F350
:101E40002083D394E3CFDA94F701ED0DF11D1082D6
:101E50000F90DF91CF911F910F91FF90EF90DF9046
:101E6000CF90BF909F908F900895809130040895F7
:101E700080912B040895ECE2F4E02191DC012D9394
:101E8000CD01B4E0E033FB07C1F7089550E040E036
:101E9000FC016191CF01662389F0262F332727FDAE
:101EA0003095205331092A30310530F06E3259F423
:101EB000413049F45F5FEBCF41E0EACF413019F4A4
:101EC00081E0533009F080E00895EF92FF920F9384
:101ED0001F93CF93DF93EC01F62EE72E8A01109229
:101EE00030040E94F40C811105C084E080932B041F
:101EF00081E069C010922B04809131048F5F809340
:101F00003104682F70E0706E25E330E048E151E065
:101F1000CE010E945B07809131048BA781E08CA7E2
:101F2000FE01BD9683E011928F5F8C30E1F781E076
:101F30008FA7EF2DFE2D21E03CE04DE04F19642FDF
:101F40006E0F5081862F90E0552391F05E3241F460
:101F5000DE01A30FB11D21509A962C93362F20E05D
:101F6000DE01A80FB91F51919A965C932F5FE7CFBE
:101F7000FE01E30FF11D215022A7FE01E80FF91F1A
:101F800012A681E0860FFE01E80FF11D12A682E085
:101F9000860FFE01E80FF11D81E082A793E0960F06
:101FA000FE01E90FF11D12A694E0960FFE01E90F64
:101FB000F11D82A789EF860F8AA76B5F70E0CE01C3
:101FC0000E94C50780E0CDB7DEB7E6E00C94831130
:101FD000CF93DF93FC016634710508F466C083A1DA
:101FE000853309F062C084A1803E09F05EC085A1FE
:101FF00090913104891359C093A5981356C085A5B3
:102000008F78803811F081E039C022A5245F6153B8
:102010007109DF01A20FB11D9A968C91807C61F04D
:102020002E5F0FC081E0820FDF01A80FB11D9A96CD
:102030009C919923A9F3282F822F90E08617970768
:1020400088F3DF01A20FB11D9B968C919B97813085
:1020500081F088E0820FDF01A80FB11D9B968C9163
:10206000265F280F822F90E08617970790F283E073
:1020700005C0D3968C91843021F082E080932B04AC
:1020800014C0265FACE2B4E080E090E0E20FF11D06
:10209000EF01C80FD91F2AA52D9301968430910511
:1020A000B9F781E08093300401C080E0DF91CF91E7
:1020B0000895A4E1B0E0EFE5F0E10C94651180E84B
:1020C000809361001092610080E08A95F1F788E0CA
:1020D00091E00E94460C82E00E94400C80E08A95CC
:1020E000F1F70E946C03789466E774E084E10E9443
:1020F0001D0C219A299A64E071E088E091E00E9429
:10210000E40680E590E00E94F70680EC91E00E94F2
:10211000A60992E0D92ECC24C39467E471E08AE842
:1021200092E00E944D0D7C01BC0187E491E00E9489
:10213000AB098C01E114F10409F084C080913C01E9
:10214000811109C04BED51E061E080E091E00E9417
:102150007208C0923C010E946B08811106C08091F8
:102160003C01813011F4D0923C0180913D018111FC
:1021700015C080913C018230E9F40E94F40C882360
:1021800061F210923F01C0923D014BEE53E06CE1D1
:1021900071E087E491E00E94650FBFCF813051F478
:1021A0000E94350F882331F0D0923D0187EE93E0F5
:1021B0000E943B0F80913D01823041F080913F01B0
:1021C0008B3008F4AACF10923D01A7CF9091420125
:1021D000913049F5299810923F01809342018091F6
:1021E00041018F5F809341010AE02EE244E063E405
:1021F00071E0CE0101960E94F20E62ED73E0CE0115
:1022000001960E945B0E8BEEE82E83E0F82E07EE1F
:1022100013E021ED31E04AED50E062ED73E088EC2F
:1022200090E00E943A0980913F018F3108F475CF08
:1022300080914201823009F070CF109242011092D9
:102240003F016BCF009731F4B70187E491E00E9422
:10225000E80F63CF44E050E0BC01695B7E4F83E34D
:1022600091E00E94D811892B31F00E94E70148EBE0
:1022700050E0BC0116C0B801655B7E4F42E050E003
:1022800088E391E00E94D811892B39F40E94E7017C
:1022900087E491E00E94F00108C048E650E060E069
:1022A00070E087E491E00E94A405BC0187E491E01E
:1022B0000E94350732CF2F923F924F925F926F92DA
:1022C0007F928F929F92AF92BF92CF92DF92EF92C6
:1022D000FF920F931F93CF93DF93CDB7DEB7CA1B47
:1022E000DB0B0FB6F894DEBF0FBECDBF09942A8872
:1022F000398848885F846E847D848C849B84AA841A
:10230000B984C884DF80EE80FD800C811B81AA81A6
:10231000B981CE0FD11D0FB6F894DEBF0FBECDBF71
:10232000ED010895FC0188279927E8942191203236
:10233000E9F3293010F02E30C8F32B3241F02D3262
:1023400039F4689404C00E94FC11820F911D219100
:1023500020532A30C0F31EF4909581959F4F089525
:10236000911106C080538A5010F0865C06C0089513
:1023700099278827089585FDFBCF80629111F8CFBA
:1023800081568A51E0F708959111F2CF803211F011
:102390008930D9F70895FB01DC0104C08D910190CB
:1023A000801921F441505040C8F7881B990B0895BB
:1023B000FB01DC014150504030F08D9101908019BB
:1023C00019F40020B9F7881B990B0895453251057F
:1023D00020F4423010F00C94F111FB011082CB017B
:1023E0000895BB274A3031F4992322F4BDE2909539
:1023F00081959F4F0C9405127AE0979F902D879FAF
:10240000802D910D11240895BB27FB015527AA2784
:10241000880F991FAA1FA41710F0A41B8395505171
:10242000B9F7A05DAA3308F0A95DA193009779F7E9
:10243000B111B1931192CB010C941E12DC01FC017D
:10244000672F71917723E1F7329704C07C916D93E8
:1024500070836291AE17BF07C8F30895F894FFCF59
:10246000C0A80101C0A801D154555810002902FF8D
:10247000FFFFFF500100010A080808087777772E50
:1024800072756564696865696D6C69636865722EEB
:0C24900063680047455420002F20000026
:00000001FF
