:100000000C94CF010C94EC010C94EC010C94EC01D9
:100010000C94EC010C94EC010C94EC010C94C603D0
:100020000C94EC010C94EC010C94EC010C94EC019C
:100030000C94EC010C94EC010C94EC010C94EC018C
:100040000C94EC010C94EC010C94EC010C94EC017C
:100050000C94EC010C94EC010C94EC010C94EC016C
:100060000C94EC010C94EC01485454502F312E3078
:100070002034303120556E617574686F72697A650D
:10008000640D0A436F6E74656E742D547970653A11
:1000900020746578742F68746D6C0D0A0D0A3C68C5
:1000A000313E34303120556E617574686F72697AF3
:1000B00065643C2F68313E003C68313E3230302070
:1000C0004F4B3C2F68313E002F6367692D62696E8C
:1000D0002F75706C643F70773D7365632670696E31
:1000E0006749503D00747578677261706869637321
:1000F0002E6F7267000A3C2F7072653E3C62723E42
:100100003C68723E000A636865636B2072657375B4
:100110006C743A203C6120687265663D6874747046
:100120003A2F2F74757867726170686963732E6FE8
:1001300072672F6367692D62696E2F75706C643EFC
:10014000687474703A2F2F7475786772617068697B
:1001500063732E6F72672F6367692D62696E2F75E7
:10016000706C643C2F613E0009000A7765625F6332
:100170006C69656E745F73656E646F6B3A0A20001C
:1001800009000A7365633A0A2000090009000900A2
:100190000A70696E6773726369703A0A2000090019
:1001A000090009000A6F74686572736964655F7796
:1001B00077775F69703A0A20000A4E756D62657242
:1001C000207375636365737366756C206461746115
:1001D0002075706C6F61647320746F207765623A6C
:1001E00020004E756D626572206F662064617461D7
:1001F0002075706C6F6164732073746172746564D0
:100200002062792070696E673A20002028303D6EA8
:100210006F206572726F72290A004572726F7220C8
:10022000636F64653A200077616974696E67206660
:100230006F7220444E5320616E737765722E0A00F0
:1002400020746F20616E73776572206172702E0A60
:100250000077616974696E6720666F722047572066
:10026000003C68323E77656220636C69656E74207D
:100270007374617475733C2F68323E0A3C7072650A
:100280003E0A00485454502F312E30203230302056
:100290004F4B0D0A436F6E74656E742D5479706503
:1002A0003A20746578742F68746D6C0D0A50726111
:1002B000676D613A206E6F2D63616368650D0A0D8D
:1002C0000A000D0A436F6E74656E742D5479706563
:1002D0003A206170706C69636174696F6E2F782D5C
:1002E0007777772D666F726D2D75726C656E636FA3
:1002F0006465640D0A0D0A00436F6E74656E742D9B
:100300004C656E6774683A20000D0A557365722D4E
:100310004167656E743A207467722F312E310D0A71
:100320004163636570743A202A2F2A0D0A000D0A72
:100330000020485454502F312E310D0A486F7374E9
:100340003A2000504F535420000D0A557365722D0A
:100350004167656E743A207467722F312E310D0A31
:100360004163636570743A20746578742F68746DA6
:100370006C0D0A0D0A0020485454502F312E310DB7
:100380000A486F73743A2000474554200000010862
:1003900000060400014500008200004000201124F6
:1003A0001FBECFEFD8E0DEBFCDBF11E0A0E0B1E0CF
:1003B000E6EEF4E202C005900D92A433B107D9F73E
:1003C00024E0A4E3B1E001C01D92AC32B207E1F732
:1003D0000E949E100C9471120C94000020913A011E
:1003E00021110CC021E020933A01FC01ABE3B1E004
:1003F00081918D9381E0AF33B807D1F70895883CA0
:10040000910531F4809138018F5F80933801299AEA
:100410000895613049F4FA01A3EEB3E081918D9320
:1004200083E0A93EB807D1F7089543E852E060E0C1
:1004300070E08FE391E00E94E9050895A1E1B0E04A
:10044000E4E2F2E00C94A8117C010E94150241E65E
:1004500052E0BC01C7010E94E905BC018091340152
:100460008130C9F441E552E0C7010E94E9056C0101
:100470000AE02EE244E060E071E0CE0101960E94C5
:10048000370FAE014F5F5F4FB601C7010E940A06EA
:1004900040E452E05EC180913501813011F547E2C0
:1004A00052E0C7010E94E9056C010E947D0F182FE0
:1004B0004AE152E0B601C7010E94E9056C014AE039
:1004C000BE016F5F7F4F812F90E00E943412AE011A
:1004D0004F5F5F4FB601C7010E940A064BE052E032
:1004E00038C142EE51E0C7010E94E9056C018091DC
:1004F00039014AE0BE016F5F7F4F90E00E943412E5
:10050000AE014F5F5F4FB601C7010E940A0649EB7B
:1005100051E0BC01C7010E94E9056C0180913801DE
:100520004AE0BE016F5F7F4F90E00E943412AE013F
:100530004F5F5F4FB601C7010E940A066C018091B0
:1005400038014AE0BE016F5F7F4F90E00E94341295
:10055000AE014F5F5F4FB601C7010E940A0644EA31
:1005600051E0BC01C7010E94E9056C018091DF03E5
:100570004AE0BE016F5F7F4F90E00E943412AE01EF
:100580004F5F5F4FB601C7010E940A0642EA51E081
:10059000BC01C7010E94E9056C018091E0034AE0BB
:1005A000BE016F5F7F4F90E00E943412AE014F5F3B
:1005B0005F4FB601C7010E940A0640EA51E0BC0144
:1005C000C7010E94E9056C018091E1034AE0BE0188
:1005D0006F5F7F4F90E00E943412AE014F5F5F4F1C
:1005E000B601C7010E940A064EE951E0BC01C701ED
:1005F0000E94E9056C018091E2034AE0BE016F5F51
:100600007F4F90E00E943412AE014F5F5F4FB60102
:10061000C7010E940A0640E951E0BC01C7010E94DF
:10062000E9056C0180913B014AE0BE016F5F7F4F9D
:1006300090E00E943412AE014F5F5F4FB601C701D8
:100640000E940A064EE851E0BC01C7010E94E9057C
:100650006C0180913C014AE0BE016F5F7F4F90E0EA
:100660000E943412AE014F5F5F4FB601C7010E9476
:100670000A064CE851E0BC01C7010E94E9056C0183
:1006800080913D014AE0BE016F5F7F4F90E00E9484
:100690003412AE014F5F5F4FB601C7010E940A06D8
:1006A0004AE851E0BC01C7010E94E9056C01809154
:1006B0003E014AE0BE016F5F7F4F90E00E9434121E
:1006C000AE014F5F5F4FB601C7010E940A0642E8C4
:1006D00051E0BC01C7010E94E9056C01809137011E
:1006E0004AE0BE016F5F7F4F90E00E943412AE017E
:1006F0004F5F5F4FB601C7010E940A0640E851E014
:10070000BC01C7010E94E9054AE651E0BC01C701EE
:100710000E94E9056C01809138014AE0BE016F5FDB
:100720007F4F90E00E943412AE014F5F5F4FB601E1
:10073000C7010E940A0648E651E0BC01C7010E94B9
:10074000E90545E051E0BC01C7010E94E90545EF1C
:1007500050E0BC01C7010E94E9056196E8E00C94F5
:10076000C41110923601E4E6F0E080818F7B808333
:1007700082E0809370001092B20094EF9093B300E7
:100780008093B00087E08093B10008951F920F928C
:100790000FB60F9211248F93809136018F5F809353
:1007A000360180913601833338F010923601809102
:1007B00037018F5F809337018F910F900FBE0F909D
:1007C0001F901895A0E0B0E0E8EEF3E00C94A611BD
:1007D0006A01590190910104891759F0E091FE03D3
:1007E000F091FF0340E050E060E070E084EF91E0C2
:1007F0003DC061113CC02D303105C8F1E090FE03D1
:10080000F090FF03E114F10491F1C091F203D09153
:10081000F303C40FD51F888590E00E940712892B2F
:1008200001F1898590E0C0978A309105D0F40B855D
:1008300010E0005311090A30110598F44AE0489F6E
:100840009001499F300D1124AA85B0E0D097A20FE6
:10085000B31F4A9FC0014B9F900D1124800F911F21
:1008600002C080E090E0A501B601F701099580E0A3
:10087000CDB7DEB7EAE00C94C211FF920F931F933D
:10088000CF93DF93FB01413051F4AB014850510944
:1008900060E070E04F5E5F4F6F4F7F4F0FC04230A0
:1008A00051F4AB014850510960E070E04A5F5F4F7E
:1008B0006F4F7F4F03C040E050E0BA01EF01DC0111
:1008C000C230D10598F00C9110E020E030E0322FDA
:1008D000212F102F00271196FC9011970F29400F00
:1008E000511F621F731F12962297EACFDF01AE7F5E
:1008F000A80FB91FE0FF0CC08C9190E0A0E0B0E021
:10090000BA2FA92F982F8827480F591F6A1F7B1FBE
:10091000CB01AA27BB270097A105B10519F06627CF
:100920007727F2CFCA0180959095CDB7DEB7E5E085
:100930000C94C711009741F026E0FC01AAE1B4E055
:1009400001900D922A95E1F70895009721F4611521
:10095000710559F40895DC01E6E1F4E08D9181938D
:1009600084E0EA31F807D1F7F2CFDB01EFE0F1E004
:100970008D91819381E0E331F807D1F70895CF930A
:10098000DF93E6E1F4E0AFE0B1E0EC014991CE01A4
:1009900021913D912427232331F4D4E0EA31FD074E
:1009A000A1F780E001C081E0DF91CF910895DC01E3
:1009B0005A96FB0180E02D919191291305C08F5F1C
:1009C0008430C9F781E0089580E0089569327105A7
:1009D000A8F0FC012485283089F42585263071F49F
:1009E000DC019696E6E1F4E09D918191981306C0B2
:1009F00084E0EA31F807C1F781E0089580E00895C6
:100A0000FC016A327105B0F08485883099F48585DF
:100A1000811110C08685853469F47E96A6E1B4E024
:100A200091918D91981306C084E0AA31B807C1F75F
:100A300081E0089580E00895CF93DF93EAE1F4E048
:100A4000DC0116962C91EC012993CE0121912D9376
:100A5000D4E0E032FD07B1F7DF91CF910895CF9355
:100A6000DF93EC01188E198E80E48C8B1D8A8E8B9F
:100A700040E064E170E0CE010E960E943D04988F44
:100A8000898FDF91CF910895CF93DF93EC016E961C
:100A9000E6E1F4E0DC015A962C91299321912D9303
:100AA00024E0EA31F207C1F70E942F05DF91CF91D0
:100AB0000895FC01BA96DC019E9686962291620FFB
:100AC000711D2E916C93442311F0208301C010827C
:100AD000672F7727E817F90789F70895CF93DF93F2
:100AE000EC018CA19AA19CA38AA38DA19BA19DA39B
:100AF0008BA3CE010E9459051AAA1BAA80E58EA7D6
:100B0000DF91CF910895CF93DF93EC010E941C05F4
:100B10001C8A82E08D8BCE0180964AE154E0DE0192
:100B200056962C91FC012193CF01FA012191AF013E
:100B30002D93F4E040325F07A1F7CE01869646E19F
:100B400054E0DE015C962C91FC012193CF01FA0167
:100B50002191AF012D93F4E04A315F07A1F7BE0167
:100B60008AE290E00E94400DDF91CF9108950F93AB
:100B70001F93CF93DF93EC018B010E941C05CE01E4
:100B80000E9444051AA29CA1983F18F08DA18F5F86
:100B90008DA3985F9CA3BE01C8010E94400DDF9108
:100BA000CF911F910F910895FC01808990E0982FBB
:100BB00088272189822B449726A522952F7034E01F
:100BC000239F80199109112497FF02C080E090E0D3
:100BD00008959C01CB01461B570BFA01E80FF91F42
:100BE000E491EE2339F0D901A80FB91FD696EC9302
:100BF0000196F3CF0895DB01D696A80FB91FFA012D
:100C0000420F4E1719F081918D93FBCFCB01820FCC
:100C1000911D0895FA0101900020E9F79F012150EC
:100C20003109241B350B0E94FB050895A5E0B0E0B7
:100C3000ECE1F6E00C94AA11909101048913A4C090
:100C4000809100040091F2031091F30381112CC0F4
:100C500048E853E060E070E0C8010E94E905409177
:100C6000F8035091F903BC01C8010E94E9054091C5
:100C7000F6035091F703BC01C8010E940A0646E73B
:100C800053E0BC01C8010E94E9054091F403509172
:100C9000F503BC01C8010E94E90549E453E0BC0129
:100CA000C8010E94E90572C043E453E060E070E0CF
:100CB000C8010E94E9054091F8035091F903BC0175
:100CC000C8010E94E9054091F6035091F703BC0169
:100CD000C8010E940A0641E353E0BC01C8010E941A
:100CE000E9054091F4035091F503BC01C8010E944D
:100CF000E905E090FC03F090FD03E114F10459F0E4
:100D00004EE253E0BC01C8010E94E905A701BC0105
:100D1000C8010E94E90549E053E0BC01C8010E94F6
:100D2000E90548EF52E0BC01C8010E94E9057C01D9
:100D3000A091FA03B091FB03FD0101900020E9F7B7
:100D400031974AE0BE016F5F7F4FCF018A1B9B0B3B
:100D50000E9434120091F2031091F303AE014F5F31
:100D60005F4FB701C8010E940A0642EC52E0BC0185
:100D7000C8010E94E9054091FA035091FB03BC01B0
:100D8000C8010E940A0602C080E090E02596E6E0D5
:100D90000C94C611A3E0B0E0E0EDF6E00C94AC11C9
:100DA0008C014B8369837A830E941C054B81842FBD
:100DB0008061F80187A769817A81443029F0611543
:100DC000710511F461E070E041E0C8010E946E0518
:100DD000F801108A88E2818BC8010E94440584E0F2
:100DE000F80180AB11AA42E06CE170E0C8014A96BC
:100DF0000E943D04F80192AB83ABB80186E390E01A
:100E00000E94400D2396E4E00C94C8110F931F93A9
:100E1000CF93DF93EC018B01CB018896988B898B64
:100E2000CE010E942F051AAA1BAAB801645E7F4F4B
:100E300042E0CE014A960E943D049AAB8BABBE01C4
:100E4000C801C6960E94400DDF91CF911F910F916E
:100E500008956115710519F4009759F40895DB019F
:100E6000E6E1F4E02D91219324E0EA31F207D1F795
:100E7000F3CF0E949A0408959093EB03809313019B
:100E80000895CF93DF93EC010E941C05188A8CE231
:100E9000898BCE010E94440582E18FA740E061E08A
:100EA00070E0CE010E946E051EA21FA28091170164
:100EB00088A719A68D5F8093170182E08EAB84E02E
:100EC0008FAB85E088AF19AE80E68EA78AE088AB4D
:100ED00019AA42E060E270E0CE014A960E943D0409
:100EE0009AAB8BABBE018AE390E00E94400DDF918C
:100EF000CF9108950F931F93CF93DF93EC018B0154
:100F00006091E9037091EA0340E00E94CA0689E11A
:100F10008FA7B801CE010E940607DF91CF911F91E4
:100F20000F910895640F751F4617570741F0FA0196
:100F30002491FC012193CF014F5F5F4FF5CF0895BE
:100F4000A2E0B0E0E6EAF7E00C94A6115C01F62E10
:100F5000E72E6A01EAE1F4E0B5016A5F7F4FD8014C
:100F60004D918D01DC014D93CD014191DB014D93FC
:100F7000BD01B4E0E032FB0791F788E0F50184871A
:100F8000158645E953E069E070E0C5010E962983B6
:100F90003A830E94920780910E01D50153968C935B
:100FA00053978F5F80930E0150961C92509781E16A
:100FB00057968C938601C5014E96A6E1B4E03A811E
:100FC0002981F80141918F01FC014193CF016D917D
:100FD000AF0145505109FA016083F4E0AA31BF071F
:100FE00081F7D50194963C93949795962C93959779
:100FF0009296EC9292979396FC92939796961C9267
:10100000969798961C92989799961C922296EAE049
:101010000C94C2110F931F93CF93DF93EC018B01BC
:10102000CB014C96898B988BCE010E942F05C8016D
:1010300008968FA39EA3B801605F7F4F41E0CE0169
:101040004A960E943D0489A798A7BE01C8018A96C6
:101050000E94400DDF91CF911F910F910895A0E064
:10106000B0E0E5E3F8E00C94A511EC01B62EA72E54
:10107000942EB901A801970186010E94A007692D4D
:101080006D3D08F06CED9B2DDE019A96EB2DFA2D4F
:101090008E2F891B861718F481918D93F9CF70E0FC
:1010A000CE010E940A08CDB7DEB7EBE00C94C11167
:1010B0000F931F93CF93DF93EC018B018091160464
:1010C000882309F448C0CE01AE014A5F5F4FEAE1D0
:1010D000F4E03FEFDC013D93CD012191DA012D9346
:1010E000AD01B4E0E032FB07A9F788E08C8786E029
:1010F0008D874DE853E068E070E0CE010E960E94C7
:101100009207DE0190964AE154E0FA012191AF0185
:10111000CD010A97FC0120831D92F4E040325F0765
:10112000A1F7B801CE018696A6E1B4E0FB012191BA
:10113000BF01FC012193CF014D919F012B5031093B
:10114000F9014083F4E0AA31BF0781F7BE018AE2CA
:1011500090E00E94400DDF91CF911F910F91089573
:1011600081E09091ED03923009F480E0089550936E
:101170002B0440932A0421E02093ED036093EC03B9
:10118000EEEEF3E0DC012D91CD012193B3E0E23FDF
:10119000FB07C1F70895FF920F931F93CF93DF933F
:1011A000EC01162F042FF52EE9E0F4E09C018AE112
:1011B00094E0BE016A5F7F4F4191D9014D939D013B
:1011C000DC014D91CD01DB014D93BD01B4E0EF3069
:1011D000FB0791F788E08C871D8645E953E069E0BD
:1011E00070E0CE010E960E9492078CE2898B80916E
:1011F0000E018B8B8F5F80930E0186E08F8B6FE0EB
:1012000074E0DE015E9686E194E0FB012191BF016E
:101210002D93FC014191CF019D0125503109F90128
:101220004083F4E063317F0781F7CE010E942F05F0
:10123000FCA20DA38BE08AA31BA3FE01B69688E057
:1012400011928150E9F78091170188A78D5F8093F3
:10125000170180E68EA782E08FA793E098AB19AACA
:101260001AAA1BAA1CAA1DAA8EAB94E09FAB88AF3A
:101270008EEE89AF42E060E270E0CE014A960E94B5
:101280003D049AAB8BABBE018AE390E00E94400D17
:10129000CDB7DEB7E5E00C94C7110F931F93909381
:1012A0000504809304047093030460930204F9011D
:1012B000AFE0B4E081918D9384E0A331B807D1F71A
:1012C000F801A9E0B4E081918D9384E0AF30B807D4
:1012D000D1F7509307044093060481E080930804FB
:1012E000809113048F5F883018F48093130402C038
:1012F00010921304809113041F910F910895A0E0A0
:10130000B0E0E5E8F9E00C94A211EC016B015A01A0
:101310003901480187010E94390D8823E9F0D093F3
:10132000F903C093F803D092F703C092F603B0928A
:10133000F503A092F403109200047092FF036092F0
:10134000FE03940140E550E066E176E082EE93E032
:101350000E944D0980930104CDB7DEB7EEE00C94F6
:10136000BE11A0E0B0E0E7EBF9E00C94A011EC01B5
:101370004B013A0129010E94390D882339F1D0939C
:10138000F903C093F8037092F5036092F40390920E
:10139000F7038092F6035092FD034092FC031093F2
:1013A000FB030093FA0381E080930004F092FF03B3
:1013B000E092FE038501960140E550E066E176E0AB
:1013C00082EE93E00E944D0980930104CDB7DEB711
:1013D000E0E10C94BC1190931504809314040895DB
:1013E000A1E0B0E0E6EFF9E00C94A8116C018B01EC
:1013F0006115710509F054C08091ED03893079F4CD
:101400008091140190911501892B49F40E94390DA6
:10141000882329F06EEE73E0C6010E94580880917F
:10142000ED03813091F40E94390D882371F06EEE46
:1014300073E0C6010E9458088091ED038860809394
:10144000ED031092150110921401809114019091F6
:101450001501019690931501809314018091080461
:10146000813009F061C10E94390D882309F45CC103
:1014700082E080930804609116016F5F609316010B
:1014800040910604509107046F718091130420E28B
:10149000829FC0011124682BC6010E94CB0844C161
:1014A0000E94E604882359F1D60155968C9181302B
:1014B00019F4C6010E9483058091ED0383FF34C1B6
:1014C000F6011589123009F02FC144E050E06EEEAC
:1014D00073E0C6014C960E940E12892B09F024C1BC
:1014E000A6014A5E5F4FE0912A04F0912B046091BF
:1014F000EC038EEE93E009951093ED0315C1B8014E
:10150000C6010E940005882309F40EC1D601579632
:101510008C915797813099F492968C91883009F08C
:1015200003C1E0911404F0911504309719F0C6013D
:101530004A960995B801C6010E94B705F5C0063361
:10154000110508F4F1C0863009F0EEC0F60184A15F
:101550008B3009F0C6C0D092F303C092F2036FE063
:1015600074E0C6010E94D704882309F4DDC0D601C7
:101570009F962C919F9722FF13C0E0910404F09155
:101580000504309709F488C095968C9120E030E0EE
:1015900040E050E063E082958695877009957CC0B5
:1015A000C60129830E94D4057C0180910804298109
:1015B000823099F5822F80712271223109F540E045
:1015C00060E070E0C6010E94CA0688E1F60187A7C4
:1015D000E0910204F0910304309741F0D601939614
:1015E0008C91829586958770099502C080E090E085
:1015F00023E020930804BC01C6010E94060794C0A2
:1016000091E090930804811104C0B7016F5F7F4F90
:1016100002C060E070E044E084C08330A9F5E114CA
:10162000F10491F184E080930804E0910404F091C6
:101630000504309749F1D6019E964C9142954F7022
:10164000B4E04B9FA0011124C80108974E5D5F4F85
:101650008417950708F4AC01C701840F951F08177C
:10166000190720F49801241B350B01C09701D601FE
:1016700095968C9160E08295869587700995882370
:1016800019F049E0B70120C090910804F60187A540
:10169000953021F484FF48C086E01AC0963071F47A
:1016A00084FD04C0B7016F5F7F4F02C060E070E04F
:1016B00044E0C6010E94CA0687E00AC080FF0BC052
:1016C000B7016F5F7F4F41E0C6010E94CA0685E007
:1016D0008093080429C0E114F10431F140E0B7011E
:1016E00020C09091EB0389131FC095A18091130135
:1016F00098131AC0F7A4F1FE04C0C6010E94410766
:1017000013C0F4FE11C0C6010E94D4059093EA03F1
:101710008093E903892B59F4F0FE06C040E060E0B5
:1017200070E0C6010E94CA0680E090E010C0F60199
:1017300026A522952F70F4E02F9F900111242E5D95
:101740003F4F085011090217130770F3C901219682
:10175000E8E00C94C4112A98962F9F71982B9EBD97
:101760000DB407FEFDCF1EBC0DB407FEFDCF67FD17
:1017700003C02A9A8EB508951EBC0DB407FEFDCF96
:10178000F8CF2A986F71682B6EBD0DB407FEFDCFA0
:101790004EBD0DB407FEFDCF2A9A0895FB012A988D
:1017A0002AE32EBD0DB407FEFDCF8E0F9F1FE81755
:1017B000F90739F01EBC0DB407FEFDCF2EB52193FD
:1017C000F6CF10822A9A08952A982AE72EBD0DB4E2
:1017D00007FEFDCF860F971F6817790741F0FB01C1
:1017E0002191BF012EBD0DB407FEFDCFF5CF2A9A82
:1017F00008951F93CF93DF93182F1076C12FD0E059
:101800002091220430E0C217D30789F043E06FE152
:1018100080EA0E94C10BAE0185E0559547958A95F7
:10182000E1F76FE180E80E94C10B10932204DF9181
:10183000CF911F910895A1E0B0E0E1E2FCE00C94AB
:10184000AE11682F69830E94F90B698180E00E94C4
:10185000AB0B2196E2E00C94CA11A1E0B0E0E3E307
:10186000FCE00C94AD11182F69830E94F90B49819B
:10187000612F80E40E94C10B2196E3E00C94C91112
:10188000CF93682F84ED0E942D0C61E082ED0E94C1
:101890002D0C8AEE0E941B0C80FDFBCF60E082EDD8
:1018A0000E942D0C89ED0E941B0CC82F88ED0E9410
:1018B0001B0C2C2F30E0322F2227A901482BCA0104
:1018C000CF910895A1E0B0E0E8E6FCE00C94AD1102
:1018D000162F682F84ED79830E942D0C612F86EDE1
:1018E0000E942D0C7981672F87ED0E942D0C18E244
:1018F0008AEE0E941B0C80FF04C0812F8A95F1F7AD
:10190000F7CF2196E3E00C94C911682F677085E743
:101910000E942D0C0895CF93DF93EC01229A2A9A0E
:1019200084B1886284B924982B982D9880E58CBD69
:101930008DB581608DBD4FEF60E08FEF0E94C10BD0
:1019400080E090E00197F1F71092210410922004BA
:1019500060E088E00E942D0C60E089E00E942D0C80
:1019600060E08CE00E942D0C60E08DE00E942D0C68
:101970006FEF8AE00E942D0C69E18BE00E942D0C34
:1019800060E084E00E942D0C6AE185E00E942D0C4D
:101990006FEF86E00E942D0C6FE187E00E942D0C16
:1019A00060EB88E30E942D0C6FE388E20E942D0C0F
:1019B00060E389E20E942D0C69EF80E30E942D0C08
:1019C00067EF81E30E942D0C6DE080EC0E942D0CEE
:1019D00060E081EC0E942D0C42E362EC80E80E9402
:1019E000C10B62E186EC0E942D0C6CE087EC0E943A
:1019F0002D0C62E184EC0E942D0C6CED8AEC0E94AF
:101A00002D0C65E08BEC0E942D0C688184EE0E9409
:101A10002D0C698185EE0E942D0C6A8182EE0E9458
:101A20002D0C6B8183EE0E942D0C6C8180EE0E9448
:101A30002D0C6D8181EE0E942D0C60E071E080E143
:101A40000E94620C8FE10E94F90B40EC6BE180E890
:101A50000E94C10B44E06FE180E80E94C10BDF915E
:101A6000CF91089582E70E941B0C863008F08F5FAB
:101A7000089581E10E94400C92FB882780F9089527
:101A80000F931F93CF93DF93EC018B016FE180E005
:101A90000E94AB0B83FDFACF8CE10E941B0C81FFEF
:101AA00013C040E86FE180E80E94C10B40E86FE19D
:101AB00080EA0E94C10B42E06CE180EA0E94C10B07
:101AC00080E395E70197F1F760E082E00E942D0C3A
:101AD0006AE183E00E942D0C6C2F86E00E942D0CA1
:101AE000CE01965E692F87E00E942D0C40E060E0F9
:101AF0008AE70E94C10BB801CE010E94E40B48E0C6
:101B00006FE180E80E94C10BDF91CF911F910F918F
:101B1000089589E30E941B0C91E0811101C090E0BF
:101B2000892F0895A0E0B0E0E8E9FDE00C94A5114C
:101B30007C016B0189E30E941B0C882309F45CC0C3
:101B400060912004C091210480E00E942D0C6C2F34
:101B500081E00E942D0C60E08AE30E94AB0B082F0D
:101B600060E08AE30E94AB0B10E0182B1093210475
:101B70000093200460E08AE30E94AB0BC82F60E072
:101B80008AE30E94AB0B982E60E08AE30E94AB0BC5
:101B9000A82EB12C60E08AE30E94AB0BA7FE0FC019
:101BA000970121503109D0E0D92924972C173D07FE
:101BB00008F4E901B601CE010E94CE0B02C0C0E0DC
:101BC000D0E06FEF01308AE118072CF08CE00E9422
:101BD0002D0C69E107C0600F8CE00E942D0C0150B4
:101BE0001109612F8DE00E942D0C40E46EE180E828
:101BF0000E94C10BCE0102C080E090E0CDB7DEB7FD
:101C0000EBE00C94C111CF93DF93FC01D90180E08C
:101C10009081592F5F7D39F48130D1F5DB0150E09F
:101C2000415051092EC09D30B9F38111F5CF5C911F
:101C300095131BC0A217B30739F4EF0121979881C0
:101C40009F3311F0963291F411969C91119799233C
:101C500011F011960BC0EF01219681E091819D3327
:101C600009F080E0D901FE0101C0D9013196D0CF41
:101C70009D3069F0963259F030E0241735073CF476
:101C80009D932A2F261B9191392F3F7D89F71C9216
:101C9000DF91CF91089590ED980F9A3060F09FE911
:101CA000980F963010F4875508959FEB980F963053
:101CB00020F487530895892F089580E00895A0E0C7
:101CC000B0E0E5E6FEE00C94A911EC018C018881FE
:101CD0008823E1F08B32A1F0853299F47E0182E015
:101CE000E80EF11C89810E944B0ED82E8A810E9439
:101CF0004B0E90E1D99E90011124822BE70101C087
:101D000080E2F80181938F012196E1CFF8011082E2
:101D1000CDB7DEB7E7E00C94C511FB01982F9F709B
:101D20009A3014F4905D01C0995A918382958F7016
:101D30008A3014F4805D01C0895A8083128208952C
:101D4000AF92BF92DF92EF92FF920F931F93CF93C8
:101D5000DF931F92CDB7DEB75B018C0185E2D82EF1
:101D6000F80121918F012223F9F0C50101967C0130
:101D7000203259F0822F992787FD909529830E9460
:101D8000F3112981892B11F405C02BE2F501208381
:101D90005701E6CFF501D082B701822F0E948D0E48
:101DA000F3E0AF0EB11CDCCFF50110820F90DF9194
:101DB000CF911F910F91FF90EF90DF90BF90AF9068
:101DC0000895A5E0B0E0E7EEFEE00C94A8118C01C8
:101DD000FC0110821182128213827B0130E020E02C
:101DE000F70141917F01442361F13430D8F523306C
:101DF00090F4842F992787FD9095C0970A9748F40F
:101E0000E1E0F0E0EC0FFD1FE20FF11D40832F5FDA
:101E100002C0222329F34E3219F7E1E0F0E0EC0F83
:101E2000FD1FE20FF11D10826801C30ED11CCE010F
:101E300001963D830E94D511F60180833D813F5F6D
:101E4000CECF333079F4E1E0F0E0EC0FFD1FE20F8C
:101E5000F11D1082CE0101960E94D511F8018383F5
:101E600080E001C081E02596E8E00C94C4118F92D7
:101E70009F92BF92CF92DF92EF92FF920F931F93A8
:101E8000CF93DF931F92CDB7DEB77C01C42EB62E61
:101E90004B01D12C10E0882D8B198C15C8F4F4015E
:101EA00081914F01A801B7016D0D711D90E029834B
:101EB0000E9429122981F701ED0DF11D80818823EF
:101EC00011F0D394F8CF222331F32083D394E3CFBE
:101ED000DA94F701ED0DF11D10820F90DF91CF9193
:101EE0001F910F91FF90EF90DF90CF90BF909F9048
:101EF0008F90089580912804089580912304089577
:101F0000E4E2F4E02191DC012D93CD01B4E0E8326C
:101F1000FB07C1F7089550E040E0FC016191CF015B
:101F2000662389F0262F332727FD3095205331096A
:101F30002A30310530F06E3259F4413049F45F5F98
:101F4000EBCF41E0EACF413019F481E0533009F0A2
:101F500080E00895EF92FF920F931F93CF93DF934A
:101F6000EC01F62EE72E8A01109228040E94390D0A
:101F7000811105C084E08093230481E069C0109240
:101F80002304809129048F5F80932904682F70E0D7
:101F9000706E25E330E048E151E0CE010E94A007D9
:101FA000809129048BA781E08CA7FE01BD9683E078
:101FB00011928F5F8C30E1F781E08FA7EF2DFE2D1E
:101FC00021E03CE04DE04F19642F6E0F5081862FC9
:101FD00090E0552391F05E3241F4DE01A30FB11D74
:101FE00021509A962C93362F20E0DE01A80FB91FBE
:101FF00051919A965C932F5FE7CFFE01E30FF11D9D
:10200000215022A7FE01E80FF91F12A681E0860FDA
:10201000FE01E80FF11D12A682E0860FFE01E80F17
:10202000F11D81E082A793E0960FFE01E90FF11DFB
:1020300012A694E0960FFE01E90FF11D82A789EF29
:10204000860F8AA76B5F70E0CE010E940A0880E0CD
:10205000CDB7DEB7E6E00C94C611CF93DF93FC0159
:102060006634710508F466C083A1853309F062C047
:1020700084A1803E09F05EC085A190912904891356
:1020800059C093A5981356C085A58F78803811F054
:1020900081E039C022A5245F61537109DF01A20FDD
:1020A000B11D9A968C91807C61F02E5F0FC081E00B
:1020B000820FDF01A80FB11D9A969C919923A9F375
:1020C000282F822F90E08617970788F3DF01A20F51
:1020D000B11D9B968C919B97813081F088E0820F97
:1020E000DF01A80FB11D9B968C91265F280F822FD0
:1020F00090E08617970790F283E005C0D3968C9105
:10210000843021F082E08093230414C0265FA4E28F
:10211000B4E080E090E0E20FF11DEF01C80FD91F9D
:102120002AA52D93019684309105B9F781E080931B
:10213000280401C080E0DF91CF910895A4E1B0E0D0
:10214000E4EAF0E10C94A81180E880936100109219
:10215000610080E08A95F1F788E091E00E948B0CA5
:1021600082E00E94850C80E08A95F1F70E94B1031D
:10217000789466E774E084E10E94620C219A299ABF
:1021800064E071E088E091E00E94290780E590E03A
:102190000E943C078EEE91E00E94EB0992E0D92E5E
:1021A000CC24C3946FE371E08AE892E00E94920D20
:1021B0007C01BC018FE391E00E94F0098C01E114E5
:1021C000F10409F082C080913401811109C049E015
:1021D00052E061E080E091E00E94B708C0923401D3
:1021E0000E94B008811106C080913401813011F441
:1021F000D092340180913501811115C08091340154
:102200008230E9F40E94390D882361F2109237017F
:10221000C092350143EE53E06CE171E08FE391E051
:102220000E94AA0FBFCF813051F40E947A0F8823F9
:1022300031F0D09235018FED93E00E94800F8091B4
:102240003501823041F0809137018D3308F4AACFF7
:1022500010923501A7CF90913A01913049F5299814
:102260001092370180933A01809139018F5F8093FA
:1022700039010AE02EE244E06BE371E0CE01019601
:102280000E94370F6AEC73E0CE0101960E94A00E07
:1022900083EEE82E83E0F82E0FED13E02FEF31E010
:1022A00045EE50E06AEC73E088EC90E00E947F0914
:1022B000809137018D3308F475CF80913A018230D7
:1022C00009F070CF10923A016DCF009731F4B70149
:1022D0008FE391E00E942D1065CF44E050E0BC01F7
:1022E000615C7E4F8CE291E00E941B12892B31F0E1
:1022F0000E94150248EB50E0BC0116C0B8016D5BAE
:102300007E4F42E050E081E391E00E941B12892B56
:1023100039F40E9415028FE391E00E941E0208C06A
:1023200048E650E060E070E08FE391E00E94E9054C
:10233000BC018FE391E00E947A0734CF2F923F9245
:102340004F925F926F927F928F929F92AF92BF92C5
:10235000CF92DF92EF92FF920F931F93CF93DF9371
:10236000CDB7DEB7CA1BDB0B0FB6F894DEBF0FBECE
:10237000CDBF09942A88398848885F846E847D841B
:102380008C849B84AA84B984C884DF80EE80FD801D
:102390000C811B81AA81B981CE0FD11D0FB6F89493
:1023A000DEBF0FBECDBFED010895FC018827992740
:1023B000E89421912032E9F3293010F02E30C8F34F
:1023C0002B3241F02D3239F4689404C00E943F1240
:1023D000820F911D219120532A30C0F31EF4909555
:1023E00081959F4F0895911106C080538A5010F037
:1023F000865C06C0089599278827089585FDFBCF40
:1024000080629111F8CF81568A51E0F708959111B9
:10241000F2CF803211F08930D9F70895FB01DC0149
:1024200004C08D910190801921F441505040C8F7AB
:10243000881B990B0895FB01DC014150504030F09E
:102440008D910190801919F40020B9F7881B990B20
:1024500008954532510520F4423010F00C943412A6
:10246000FB011082CB010895BB274A3031F4992338
:1024700022F4BDE2909581959F4F0C9448127AE02A
:10248000979F902D879F802D910D11240895BB2734
:10249000FB015527AA27880F991FAA1FA41710F020
:1024A000A41B83955051B9F7A05DAA3308F0A95D2C
:1024B000A193009779F7B111B1931192CB010C94CC
:1024C0006112DC01FC01672F71917723E1F73297EC
:1024D00004C07C916D9370836291AE17BF07C8F3FF
:0624E0000895F894FFCFFF
:1024E600C0A80101C0A801D154555810002902FF07
:1024F600FFFFFF500100010A080808087475786795
:10250600726170686963732E6F7267004745542065
:04251600002F200072
:00000001FF
