:100000000C9421020C943E020C943E020C943E028D
:100010000C943E020C943E020C943E020C94850318
:100020000C943E020C943E020C943E020C943E0250
:100030000C943E020C943E020C943E020C943E0240
:100040000C943E020C943E020C943E020C943E0230
:100050000C943E020C943E020C943E020C943E0220
:100060000C943E020C943E02485454502F312E30D2
:100070002034303120556E617574686F72697A650D
:10008000640D0A436F6E74656E742D547970653A11
:1000900020746578742F68746D6C0D0A0D0A3C68C5
:1000A000313E34303120556E617574686F72697AF3
:1000B00065643C2F68313E003C68313E3230302070
:1000C0004F4B3C2F68313E002F6170692F73746174
:1000D00074757365732F7570646174652E786D6CBB
:1000E000006964656E74692E636100417574686FA0
:1000F00072697A6174696F6E3A2042617369632034
:100100005A58786F596D5668636A38306458685821
:10011000595734314E773D3D003C2F666F726D3E2E
:100120000A3C2F7072653E3C62723E3C68723E74BF
:10013000757867726170686963732E6F7267007695
:10014000616C75653D303E3C696E707574207479E4
:1001500070653D7375626D69742076616C75653D7F
:100160002264697361626C65206964656E74692ECE
:100170006361206D7367223E0076616C75653D3169
:100180003E3C696E70757420747970653D7375625C
:100190006D69742076616C75653D22656E61626C77
:1001A00065206964656E74692E6361206D736722D2
:1001B0003E000A3C666F726D20616374696F6E3D2C
:1001C0002F206D6574686F643D6765743E0A7061C9
:1001D0007373773A203C696E70757420747970651A
:1001E0003D70617373776F72642073697A653D380F
:1001F000206E616D653D70773E3C696E7075742050
:10020000747970653D68696464656E206E616D65C2
:100210003D6D6E20004F4E004F4646000A696465F2
:100220006E74692E6361206E6F74696679206973DC
:100230003A20000A44617465206F66206C61737413
:10024000206964656E74692E63613A20000A4E75F8
:100250006D207375636365737366756C206964657F
:100260006E74692E63613A20000A4E756D206F66C8
:10027000206964656E74692E636120617474656DB4
:100280007074733A20004E756D206F6620504436AE
:1002900020746F20474E4420636F6E6E65637469EF
:1002A0006F6E733A200077616974696E6720666FBC
:1002B0007220444E5320616E737765722E0A0020BF
:1002C000746F20616E73776572206172702E0A0000
:1002D00077616974696E6720666F722047572000E6
:1002E0003C68323E6964656E74692E6361206E6F8E
:1002F00074696669636174696F6E20737461747583
:10030000733C2F68323E0A3C7072653E0A003C61C5
:1003100020687265663D2F3E5B7265667265736824
:100320005D3C2F613E00485454502F312E30203216
:100330003030204F4B0D0A436F6E74656E742D5430
:100340007970653A20746578742F68746D6C0D0A45
:10035000507261676D613A206E6F2D6361636865ED
:100360000D0A0D0A000D0A436F6E74656E742D54EC
:100370007970653A206170706C69636174696F6E41
:100380002F782D7777772D666F726D2D75726C656E
:100390006E636F6465640D0A0D0A00436F6E7465C9
:1003A0006E742D4C656E6774683A20000D0A5573A3
:1003B00065722D4167656E743A207467722F312E15
:1003C000310D0A4163636570743A202A2F2A0D0AA1
:1003D000000D0A0020485454502F312E310D0A4888
:1003E0006F73743A2000504F535420000D0A557318
:1003F00065722D4167656E743A207467722F312ED5
:10040000310D0A4163636570743A20746578742F06
:1004100068746D6C0D0A0D0A0020485454502F3139
:100420002E310D0A486F73743A200047455420005E
:1004300000010800060400014500008200004000A1
:10044000200011241FBECFEFD8E0DEBFCDBF11E0EA
:10045000A0E0B1E0EAEDF5E202C005900D92A63809
:10046000B107D9F724E0A6E8B1E001C01D92A83693
:10047000B207E1F70E94C6100C94EB120C94000036
:10048000613049F4FA01AFE1B4E081918D9384E0E9
:10049000A532B807D1F70895E2E2F1E0DF010D904F
:1004A0000020E9F7AD014150510942525140BC01D1
:1004B000CF010E94951221E0892B09F020E0822FC4
:1004C0000895AAE0B0E0E7E6F2E00C941A128C017D
:1004D000FC0180818F3219F48181803231F121E475
:1004E00031E04AE0BE016F5F7F4FC8010E942B0ED2
:1004F000811102C08FEF1AC0FF24F39489818133E8
:1005000009F0F12C24E431E04AE0BE016F5F7F4F37
:10051000C8010E942B0E882369F3CE0101960E9428
:100520004C02882339F38F2D01C082E02A96E5E042
:100530000C94361246E253E060E070E080E991E00E
:100540000E9411060895CF92DF92EF92FF920F93CF
:10055000CF93DF93CDB7DEB72F970FB6F894DEBFFA
:100560000FBECDBF7C010E949A024EE053E0BC0159
:10057000C7010E94110640EE52E0BC01C7010E9473
:100580001106BC01809186018130C9F440ED52E032
:10059000C7010E9411066C010AE02EE244E06EE100
:1005A00071E0CE0101960E945F0FAE014F5F5F4F79
:1005B000B601C7010E9432064FEB52E07FC0809126
:1005C0008701813019F446EA52E079C046E852E0EA
:1005D000C7010E9411066C0180918E014AE0BE01A4
:1005E0006F5F7F4F90E00E94AE12AE014F5F5F4F92
:1005F000B601C7010E94320649E652E0BC01C701BC
:100600000E9411066C0180918C014AE0BE016F5F6F
:100610007F4F90E00E94AE12AE014F5F5F4FB60178
:10062000C7010E9432064DE452E0BC01C7010E949E
:1006300011066C0180918B014AE0BE016F5F7F4F14
:1006400090E00E94AE12AE014F5F5F4FB601C7014E
:100650000E94320643E352E0BC01C7010E9411062A
:1006600040E051E0BC01C7010E9432064CE152E07B
:10067000BC01C7010E941106BC0180918F0184302A
:1006800019F448E152E002C045E152E0C7010E947E
:10069000110642EB51E0BC01C7010E941106BC01EA
:1006A00080918F01843019F449E751E002C04FE393
:1006B00051E0C7010E94110649E151E0BC01C701A8
:1006C0000E9411062F960FB6F894DEBF0FBECDBF65
:1006D000DF91CF910F91FF90EF90DF90CF90089531
:1006E00010928801E4E6F0E080818F7B808382E0D5
:1006F000809370001092B20094EF9093B3008093B7
:10070000B00087E08093B10008951F920F920FB65A
:100710000F9211248F93809188018F5F80938801BD
:1007200080918801833348F010928801809189017B
:100730008F5F8093890110928D018F910F900FBE72
:100740000F901F901895A7E0B0E0E9EAF3E00C9451
:100750001D1227E0E7E4F1E0DE01119601900D9211
:100760002A95E1F7AC014C595F4F60E0B82FA92FF3
:10077000FC017191CF01772399F1262F30E0662398
:1007800001F1E1E0F0E0EC0FFD1FE20FF31FE0816B
:10079000E11117C0EB2FFA2FA0E0B1E080E09191BA
:1007A000992349F09D3039F09A3029F08D3119F0B4
:1007B0009D938F5FF4CFE82FF0E0E050FF4F108261
:1007C0000FC0E1E0F0E0EC0FFD1FE20FF31F20810E
:1007D000721302C06F5F01C060E08417950731F6A5
:1007E0002796E2E00C943912883C910559F48091E7
:1007F0008B018F5F80938B01299ACB0180579E4F8D
:100800000E94A30380918F01823019F483E08093CA
:100810008F010895A0E0B0E0E0E1F4E00C9415123F
:100820006A01590190913D04891759F0E0913A0409
:10083000F0913B0440E050E060E070E084EF91E034
:100840003DC061113CC02D303105C8F1E0903A0443
:10085000F0903B04E114F10491F1C0912E04D09189
:100860002F04C40FD51F888590E00E947612892B33
:1008700001F1898590E0C0978A309105D0F40B850D
:1008800010E0005311090A30110598F44AE0489F1E
:100890009001499F300D1124AA85B0E0D097A20F96
:1008A000B31F4A9FC0014B9F900D1124800F911FD1
:1008B00002C080E090E0A501B601F701099580E053
:1008C000CDB7DEB7EAE00C943112FF920F931F937D
:1008D000CF93DF93FB01413051F4AB0148505109F4
:1008E00060E070E04F5E5F4F6F4F7F4F0FC0423050
:1008F00051F4AB014850510960E070E04A5F5F4F2E
:100900006F4F7F4F03C040E050E0BA01EF01DC01C0
:10091000C230D10598F00C9110E020E030E0322F89
:10092000212F102F00271196FC9011970F29400FAF
:10093000511F621F731F12962297EACFDF01AE7F0D
:10094000A80FB91FE0FF0CC08C9190E0A0E0B0E0D0
:10095000BA2FA92F982F8827480F591F6A1F7B1F6E
:10096000CB01AA27BB270097A105B10519F066277F
:100970007727F2CFCA0180959095CDB7DEB7E5E035
:100980000C943612009741F026E0FC01A6E5B4E095
:1009900001900D922A95E1F70895009721F46115D1
:1009A000710559F40895DC01E2E5F4E08D9181933D
:1009B00084E0E635F807D1F7F2CFDB01E4E3F1E0BC
:1009C0008D91819381E0E833F807D1F70895CF93B3
:1009D000DF93E2E5F4E0A4E3B1E0EC014991CE015C
:1009E00021913D912427232331F4D4E0E635FD07FE
:1009F000A1F780E001C081E0DF91CF910895DC0193
:100A00005A96FB0180E02D919191291305C08F5FCB
:100A10008430C9F781E0089580E008956932710556
:100A2000A8F0FC012485283089F42585263071F44E
:100A3000DC019696E2E5F4E09D918191981306C061
:100A400084E0E635F807C1F781E0089580E0089575
:100A5000FC016A327105B0F08485883099F485858F
:100A6000811110C08685853469F47E96A2E5B4E0D4
:100A700091918D91981306C084E0A635B807C1F70F
:100A800081E0089580E00895CF93DF93E6E5F4E0F8
:100A9000DC0116962C91EC012993CE0121912D9326
:100AA000D4E0EC35FD07B1F7DF91CF910895CF93F6
:100AB000DF93EC01188E198E80E48C8B1D8A8E8B4F
:100AC00040E064E170E0CE010E960E946504988FCC
:100AD000898FDF91CF910895CF93DF93EC016E96CC
:100AE000E2E5F4E0DC015A962C91299321912D93B3
:100AF00024E0E635F207C1F70E945705DF91CF9158
:100B00000895FC01BA96DC019E9686962291620FAA
:100B1000711D2E916C93442311F0208301C010822B
:100B2000672F7727E817F90789F70895CF93DF93A1
:100B3000EC018CA19AA19CA38AA38DA19BA19DA34A
:100B40008BA3CE010E9481051AAA1BAA80E58EA75D
:100B5000DF91CF910895CF93DF93EC010E9444057C
:100B60001C8A82E08D8BCE01809646E554E0DE0142
:100B700056962C91FC012193CF01FA012191AF01EE
:100B80002D93F4E04C355F07A1F7CE01869642E540
:100B900054E0DE015C962C91FC012193CF01FA0117
:100BA0002191AF012D93F4E046355F07A1F7BE0117
:100BB0008AE290E00E94680DDF91CF9108950F9333
:100BC0001F93CF93DF93EC018B010E944405CE016C
:100BD0000E946C051AA29CA1983F18F08DA18F5F0E
:100BE0008DA3985F9CA3BE01C8010E94680DDF9190
:100BF000CF911F910F910895FC01808990E0982F6B
:100C000088272189822B449726A522952F7034E0CE
:100C1000239F80199109112497FF02C080E090E082
:100C200008959C01CB01461B570BFA01E80FF91FF1
:100C3000E491EE2339F0D901A80FB91FD696EC93B1
:100C40000196F3CF0895DB01D696A80FB91FFA01DC
:100C5000420F4E1719F081918D93FBCFCB01820F7C
:100C6000911D0895FA0101900020E9F79F0121509C
:100C70003109241B350B0E9423060895A5E0B0E03E
:100C8000E4E4F6E00C94191290913D048913A4C099
:100C900080913C0400912E0410912F0481112CC0EE
:100CA0004BE254E060E070E0C8010E941106409100
:100CB000340450913504BC01C8010E9411064091D2
:100CC000320450913304BC01C8010E94320649E14C
:100CD00054E0BC01C8010E941106409130045091BB
:100CE0003104BC01C8010E9411064CEE53E0BC0166
:100CF000C8010E94110672C046EE53E060E070E049
:100D0000C8010E9411064091340450913504BC0181
:100D1000C8010E9411064091320450913304BC0175
:100D2000C8010E94320644ED53E0BC01C8010E9494
:100D300011064091300450913104BC01C8010E9459
:100D40001106E0903804F0903904E114F10459F0F0
:100D500041ED53E0BC01C8010E941106A701BC018E
:100D6000C8010E9411064CEA53E0BC01C8010E9470
:100D700011064BE953E0BC01C8010E9411067C0139
:100D8000A0913604B0913704FD0101900020E9F7ED
:100D900031974AE0BE016F5F7F4FCF018A1B9B0BEB
:100DA0000E94AE1200912E0410912F04AE014F5FED
:100DB0005F4FB701C8010E94320645E653E0BC010F
:100DC000C8010E9411064091360450913704BC01BD
:100DD000C8010E94320602C080E090E02596E6E05D
:100DE0000C943512A3E0B0E0E8EFF6E00C941B128F
:100DF0008C014B8369837A830E9444054B81842F45
:100E00008061F80187A769817A81443029F06115F2
:100E1000710511F461E070E041E0C8010E9496059F
:100E2000F801108A88E2818BC8010E946C0584E079
:100E3000F80180AB11AA42E06CE170E0C8014A966B
:100E40000E946504F80192AB83ABB80186E390E0A1
:100E50000E94680D2396E4E00C9437120F931F93C1
:100E6000CF93DF93EC018B01CB018896988B898B14
:100E7000CE010E9457051AAA1BAAB801645E7F4FD3
:100E800042E0CE014A960E9465049AAB8BABBE014C
:100E9000C801C6960E94680DDF91CF911F910F91F6
:100EA00008956115710519F4009759F40895DB014F
:100EB000E2E5F4E02D91219324E0E635F207D1F745
:100EC000F3CF0E94C20408959093270480933801C1
:100ED0000895CF93DF93EC010E944405188A8CE2B9
:100EE000898BCE010E946C0582E18FA740E061E012
:100EF00070E0CE010E9496051EA21FA280913C01C7
:100F000088A719A68D5F80933C0182E08EAB84E0B8
:100F10008FAB85E088AF19AE80E68EA78AE088ABFC
:100F200019AA42E060E270E0CE014A960E94650490
:100F30009AAB8BABBE018AE390E00E94680DDF9113
:100F4000CF9108950F931F93CF93DF93EC018B0103
:100F5000609125047091260440E00E94F20689E128
:100F60008FA7B801CE010E942E07DF91CF911F916C
:100F70000F910895640F751F4617570741F0FA0146
:100F80002491FC012193CF014F5F5F4FF5CF08956E
:100F9000A2E0B0E0EEECF7E00C9415125C01F62E46
:100FA000E72E6A01E6E5F4E0B5016A5F7F4FD801FC
:100FB0004D918D01DC014D93CD014191DB014D93AC
:100FC000BD01B4E0EC35FB0791F788E0F5018487BB
:100FD000158648E354E069E070E0C5010E96298368
:100FE0003A830E94BA0780913301D50153968C93BE
:100FF00053978F5F8093330150961C92509781E1F5
:1010000057968C938601C5014E96A2E5B4E03A81CD
:101010002981F80141918F01FC014193CF016D912C
:10102000AF0145505109FA016083F4E0A635BF07CE
:1010300081F7D50194963C93949795962C93959728
:101040009296EC9292979396FC92939796961C9216
:10105000969798961C92989799961C922296EAE0F9
:101060000C9431120F931F93CF93DF93EC018B01FC
:10107000CB014C96898B988BCE010E945705C801F5
:1010800008968FA39EA3B801605F7F4F41E0CE0119
:101090004A960E94650489A798A7BE01C8018A964E
:1010A0000E94680DDF91CF911F910F910895A0E0EC
:1010B000B0E0EDE5F8E00C941412EC01B62EA72E8A
:1010C000942EB901A801970186010E94C807692DD5
:1010D0006D3D08F06CED9B2DDE019A96EB2DFA2DFF
:1010E0008E2F891B861718F481918D93F9CF70E0AC
:1010F000CE010E943208CDB7DEB7EBE00C9430127F
:101100000F931F93CF93DF93EC018B0180915204D7
:10111000882309F448C0CE01AE014A5F5F4FE6E57F
:10112000F4E03FEFDC013D93CD012191DA012D93F5
:10113000AD01B4E0EC35FB07A9F788E08C8786E0C9
:101140008D8740E354E068E070E0CE010E960E9487
:10115000BA07DE01909646E554E0FA012191AF010D
:10116000CD010A97FC0120831D92F4E04C355F0706
:10117000A1F7B801CE018696A2E5B4E0FB0121916A
:10118000BF01FC012193CF014D919F012B503109EB
:10119000F9014083F4E0A635BF0781F7BE018AE27A
:1011A00090E00E94680DDF91CF911F910F910895FB
:1011B00081E090912904923009F480E008955093E1
:1011C00067044093660421E0209329046093280477
:1011D000EAE2F4E0DC012D91CD012193B4E0EE329E
:1011E000FB07C1F70895FF920F931F93CF93DF93EF
:1011F000EC01162F042FF52EE5E4F4E09C0186E5C2
:1012000094E0BE016A5F7F4F4191D9014D939D01EA
:10121000DC014D91CD01DB014D93BD01B4E0EB3418
:10122000FB0791F788E08C871D8648E354E069E06E
:1012300070E0CE010E960E94BA078CE2898B8091F5
:1012400033018B8B8F5F8093330186E08F8B6BE450
:1012500074E0DE015E9682E594E0FB012191BF011E
:101260002D93FC014191CF019D0125503109F901D8
:101270004083F4E06F347F0781F7CE010E94570569
:10128000FCA20DA38BE08AA31BA3FE01B69688E007
:1012900011928150E9F780913C0188A78D5F80937E
:1012A0003C0180E68EA782E08FA793E098AB19AA55
:1012B0001AAA1BAA1CAA1DAA8EAB94E09FAB88AFEA
:1012C0008EEE89AF42E060E270E0CE014A960E9465
:1012D00065049AAB8BABBE018AE390E00E94680D77
:1012E000CDB7DEB7E5E00C9436120F931F939093C1
:1012F00041048093400470933F0460933E04F901DD
:10130000ABE4B4E081918D9384E0AF34B807D1F7BA
:10131000F801A5E4B4E081918D9384E0AB34B80783
:10132000D1F7509343044093420481E080934404F6
:1013300080914F048F5F883018F480934F0402C06F
:1013400010924F0480914F041F910F910895A0E0D7
:10135000B0E0EDEAF9E00C941112EC016B015A01D6
:101360003901480187010E94610D8823E9F0D0937B
:101370003504C0933404D0923304C0923204B09246
:101380003104A092300410923C0470923B046092AD
:101390003A04940140E550E06EE376E08AE094E0A0
:1013A0000E94750980933D04CDB7DEB7EEE00C9442
:1013B0002D12A0E0B0E0EFEDF9E00C940F12EC017B
:1013C0004B013A0129010E94610D882339F1D09324
:1013D0003504C093340470923104609230049092CA
:1013E00033048092320450923904409238041093AE
:1013F00037040093360481E080933C04F0923B0470
:10140000E0923A048501960140E550E06EE376E013
:101410008AE094E00E94750980933D04CDB7DEB761
:10142000E0E10C942B1290935104809350040895A2
:10143000A1E0B0E0EEE1FAE00C9417126C018B0130
:101440006115710509F054C080912904893079F43F
:101450008091390190913A01892B49F40E94610DE4
:10146000882329F06AE274E0C6010E948008809116
:101470002904813091F40E94610D882371F06AE2A1
:1014800074E0C6010E9480088091290488608093DE
:10149000290410923A0110923901809139019091FA
:1014A0003A01019690933A01809339018091440466
:1014B000813009F061C10E94610D882309F45CC18B
:1014C00082E08093440460913B016F5F60933B0135
:1014D00040914204509143046F7180914F0420E287
:1014E000829FC0011124682BC6010E94F30844C1E9
:1014F0000E940E05882359F1D60155968C918130B2
:1015000019F4C6010E94AB058091290483FF34C100
:10151000F6011589123009F02FC144E050E06AE26B
:1015200074E0C6014C960E947D12892B09F024C1FB
:10153000A6014A5E5F4FE0916604F09167046091F6
:1015400028048AE294E009951093290415C1B80192
:10155000C6010E942805882309F40EC1D6015796BA
:101560008C915797813099F492968C91883009F03C
:1015700003C1E0915004F0915104309719F0C60175
:101580004A960995B801C6010E94DF05F5C00633E9
:10159000110508F4F1C0863009F0EEC0F60184A10F
:1015A0008B3009F0C6C0D0922F04C0922E046BE499
:1015B00074E0C6010E94FF04882309F4DDC0D6014F
:1015C0009F962C919F9722FF13C0E0914004F091C9
:1015D0004104309709F488C095968C9120E030E062
:1015E00040E050E063E082958695877009957CC065
:1015F000C60129830E94FC057C0180914404298155
:10160000823099F5822F80712271223109F540E0F4
:1016100060E070E0C6010E94F20688E1F60187A74B
:10162000E0913E04F0913F04309741F0D60193964B
:101630008C91829586958770099502C080E090E034
:1016400023E020934404BC01C6010E942E0794C0ED
:1016500091E090934404811104C0B7016F5F7F4F04
:1016600002C060E070E044E084C08330A9F5E1147A
:10167000F10491F184E080934404E0914004F091FE
:101680004104309749F1D6019E964C9142954F7096
:10169000B4E04B9FA0011124C80108974E5D5F4F35
:1016A0008417950708F4AC01C701840F951F08172C
:1016B000190720F49801241B350B01C09701D601AE
:1016C00095968C9160E08295869587700995882320
:1016D00019F049E0B70120C090914404F60187A5B4
:1016E000953021F484FF48C086E01AC0963071F42A
:1016F00084FD04C0B7016F5F7F4F02C060E070E0FF
:1017000044E0C6010E94F20687E00AC080FF0BC0D9
:10171000B7016F5F7F4F41E0C6010E94F20685E08E
:101720008093440429C0E114F10431F140E0B70191
:1017300020C09091270489131FC095A18091380182
:1017400098131AC0F7A4F1FE04C0C6010E946907ED
:1017500013C0F4FE11C0C6010E94FC05909326043C
:1017600080932504892B59F4F0FE06C040E060E028
:1017700070E0C6010E94F20680E090E010C0F60121
:1017800026A522952F70F4E02F9F900111242E5D45
:101790003F4F085011090217130770F3C901219632
:1017A000E8E00C9433122A98962F9F71982B9EBDD7
:1017B0000DB407FEFDCF1EBC0DB407FEFDCF67FDC7
:1017C00003C02A9A8EB508951EBC0DB407FEFDCF46
:1017D000F8CF2A986F71682B6EBD0DB407FEFDCF50
:1017E0004EBD0DB407FEFDCF2A9A0895FB012A983D
:1017F0002AE32EBD0DB407FEFDCF8E0F9F1FE81705
:10180000F90739F01EBC0DB407FEFDCF2EB52193AC
:10181000F6CF10822A9A08952A982AE72EBD0DB491
:1018200007FEFDCF860F971F6817790741F0FB0170
:101830002191BF012EBD0DB407FEFDCFF5CF2A9A31
:1018400008951F93CF93DF93182F1076C12FD0E008
:1018500020915E0430E0C217D30789F043E06FE1C6
:1018600080EA0E94E90BAE0185E0559547958A957F
:10187000E1F76FE180E80E94E90B10935E04DF91CD
:10188000CF911F910895A1E0B0E0E9E4FCE00C9451
:101890001D12682F69830E94210C698180E00E94DB
:1018A000D30B2196E2E00C943912A1E0B0E0EBE515
:1018B000FCE00C941C12182F69830E94210C4981B2
:1018C000612F80E40E94E90B2196E3E00C9438122A
:1018D000CF93682F84ED0E94550C61E082ED0E9449
:1018E000550C8AEE0E94430C80FDFBCF60E082ED38
:1018F0000E94550C89ED0E94430CC82F88ED0E9470
:10190000430C2C2F30E0322F2227A901482BCA018B
:10191000CF910895A1E0B0E0E0E9FCE00C941C1246
:10192000162F682F84ED79830E94550C612F86ED68
:101930000E94550C7981672F87ED0E94550C18E2A3
:101940008AEE0E94430C80FF04C0812F8A95F1F734
:10195000F7CF2196E3E00C943812682F677085E783
:101960000E94550C0895CF93DF93EC01229A2A9A96
:1019700084B1886284B924982B982D9880E58CBD19
:101980008DB581608DBD4FEF60E08FEF0E94E90B58
:1019900080E090E00197F1F710925D0410925C04F2
:1019A00060E088E00E94550C60E089E00E94550CE0
:1019B00060E08CE00E94550C60E08DE00E94550CC8
:1019C0006FEF8AE00E94550C69E18BE00E94550C94
:1019D00060E084E00E94550C6AE185E00E94550CAD
:1019E0006FEF86E00E94550C6FE187E00E94550C76
:1019F00060EB88E30E94550C6FE388E20E94550C6F
:101A000060E389E20E94550C69EF80E30E94550C67
:101A100067EF81E30E94550C6DE080EC0E94550C4D
:101A200060E081EC0E94550C42E362EC80E80E9489
:101A3000E90B62E186EC0E94550C6CE087EC0E9499
:101A4000550C62E184EC0E94550C6CED8AEC0E940E
:101A5000550C65E08BEC0E94550C688184EE0E9469
:101A6000550C698185EE0E94550C6A8182EE0E94B8
:101A7000550C6B8183EE0E94550C6C8180EE0E94A8
:101A8000550C6D8181EE0E94550C60E071E080E1A3
:101A90000E948A0C8FE10E94210C40EC6BE180E8EF
:101AA0000E94E90B44E06FE180E80E94E90BDF91BE
:101AB000CF91089582E70E94430C863008F08F5F33
:101AC000089581E10E94680C92FB882780F90895AF
:101AD0000F931F93CF93DF93EC018B016FE180E0B5
:101AE0000E94D30B83FDFACF8CE10E94430C81FF4F
:101AF00013C040E86FE180E80E94E90B40E86FE125
:101B000080EA0E94E90B42E06CE180EA0E94E90B66
:101B100080E395E70197F1F760E082E00E94550CC1
:101B20006AE183E00E94550C6C2F86E00E94550C00
:101B3000CE01965E692F87E00E94550C40E060E080
:101B40008AE70E94E90BB801CE010E940C0C48E024
:101B50006FE180E80E94E90BDF91CF911F910F9117
:101B6000089589E30E94430C91E0811101C090E047
:101B7000892F0895A0E0B0E0E0ECFDE00C94141291
:101B80007C016B0189E30E94430C882309F45CC04B
:101B900060915C04C0915D0480E00E94550C6C2F44
:101BA00081E00E94550C60E08AE30E94D30B082F6D
:101BB00060E08AE30E94D30B10E0182B10935D04C1
:101BC00000935C0460E08AE30E94D30BC82F60E0BE
:101BD0008AE30E94D30B982E60E08AE30E94D30B25
:101BE000A82EB12C60E08AE30E94D30BA7FE0FC0A1
:101BF000970121503109D0E0D92924972C173D07AE
:101C000008F4E901B601CE010E94F60B02C0C0E063
:101C1000D0E06FEF01308AE118072CF08CE00E94D1
:101C2000550C69E107C0600F8CE00E94550C015013
:101C30001109612F8DE00E94550C40E46EE180E8AF
:101C40000E94E90BCE0102C080E090E0CDB7DEB784
:101C5000EBE00C943012CF93DF93FC01D90180E0CC
:101C60009081592F5F7D39F48130D1F5DB0150E04F
:101C7000415051092EC09D30B9F38111F5CF5C91CF
:101C800095131BC0A217B30739F4EF012197988170
:101C90009F3311F0963291F411969C9111979923EC
:101CA00011F011960BC0EF01219681E091819D33D7
:101CB00009F080E0D901FE0101C0D9013196D0CFF1
:101CC0009D3069F0963259F030E0241735073CF426
:101CD0009D932A2F261B9191392F3F7D89F71C92C6
:101CE000DF91CF91089590ED980F9A3060F09FE9C1
:101CF000980F963010F4875508959FEB980F963003
:101D000020F487530895892F089580E00895A0E076
:101D1000B0E0EDE8FEE00C941812EC018C01888133
:101D20008823E1F08B32A1F0853299F47E0182E0C4
:101D3000E80EF11C89810E94730ED82E8A810E94C0
:101D4000730E90E1D99E90011124822BE70101C00E
:101D500080E2F80181938F012196E1CFF801108292
:101D6000CDB7DEB7E7E00C943412FB01982F9F70DB
:101D70009A3014F4905D01C0995A918382958F70C6
:101D80008A3014F4805D01C0895A808312820895DC
:101D9000AF92BF92DF92EF92FF920F931F93CF9378
:101DA000DF931F92CDB7DEB75B018C0185E2D82EA1
:101DB000F80121918F012223F9F0C50101967C01E0
:101DC000203259F0822F992787FD909529830E9410
:101DD00062122981892B11F405C02BE2F5012083C1
:101DE0005701E6CFF501D082B701822F0E94B50ED0
:101DF000F3E0AF0EB11CDCCFF50110820F90DF9144
:101E0000CF911F910F91FF90EF90DF90BF90AF9017
:101E10000895A5E0B0E0EFE0FFE00C9417128C010C
:101E2000FC0110821182128213827B0130E020E0DB
:101E3000F70141917F01442361F13430D8F523301B
:101E400090F4842F992787FD9095C0970A9748F4BE
:101E5000E1E0F0E0EC0FFD1FE20FF11D40832F5F8A
:101E600002C0222329F34E3219F7E1E0F0E0EC0F33
:101E7000FD1FE20FF11D10826801C30ED11CCE01BF
:101E800001963D830E944412F60180833D813F5FAD
:101E9000CECF333079F4E1E0F0E0EC0FFD1FE20F3C
:101EA000F11D1082CE0101960E944412F801838335
:101EB00080E001C081E02596E8E00C9433128F9217
:101EC0009F92BF92CF92DF92EF92FF920F931F9358
:101ED000CF93DF931F92CDB7DEB77C01C42EB62E11
:101EE0004B01D12C10E0882D8B198C15C8F4F4010E
:101EF00081914F01A801B7016D0D711D90E02983FB
:101F00000E94A3122981F701ED0DF11D8081882324
:101F100011F0D394F8CF222331F32083D394E3CF6D
:101F2000DA94F701ED0DF11D10820F90DF91CF9142
:101F30001F910F91FF90EF90DF90CF90BF909F90F7
:101F40008F90089580916404089580915F040895AE
:101F5000E0E6F4E02191DC012D93CD01B4E0E4361C
:101F6000FB07C1F7089550E040E0FC016191CF010B
:101F7000662389F0262F332727FD3095205331091A
:101F80002A30310530F06E3259F4413049F45F5F48
:101F9000EBCF41E0EACF413019F481E0533009F052
:101FA00080E00895EF92FF920F931F93CF93DF93FA
:101FB000EC01F62EE72E8A01109264040E94610D56
:101FC000811105C084E080935F0481E069C01092B4
:101FD0005F04809165048F5F80936504682F70E0D3
:101FE000706E25E330E04DE351E0CE010E94C8075A
:101FF000809165048BA781E08CA7FE01BD9683E0EC
:1020000011928F5F8C30E1F781E08FA7EF2DFE2DCD
:1020100021E03CE04DE04F19642F6E0F5081862F78
:1020200090E0552391F05E3241F4DE01A30FB11D23
:1020300021509A962C93362F20E0DE01A80FB91F6D
:1020400051919A965C932F5FE7CFFE01E30FF11D4C
:10205000215022A7FE01E80FF91F12A681E0860F8A
:10206000FE01E80FF11D12A682E0860FFE01E80FC7
:10207000F11D81E082A793E0960FFE01E90FF11DAB
:1020800012A694E0960FFE01E90FF11D82A789EFD9
:10209000860F8AA76B5F70E0CE010E94320880E055
:1020A000CDB7DEB7E6E00C943512CF93DF93FC0199
:1020B0006634710508F466C083A1853309F062C0F7
:1020C00084A1803E09F05EC085A1909165048913CA
:1020D00059C093A5981356C085A58F78803811F004
:1020E00081E039C022A5245F61537109DF01A20F8D
:1020F000B11D9A968C91807C61F02E5F0FC081E0BB
:10210000820FDF01A80FB11D9A969C919923A9F324
:10211000282F822F90E08617970788F3DF01A20F00
:10212000B11D9B968C919B97813081F088E0820F46
:10213000DF01A80FB11D9B968C91265F280F822F7F
:1021400090E08617970790F283E005C0D3968C91B4
:10215000843021F082E080935F0414C0265FA0E603
:10216000B4E080E090E0E20FF11DEF01C80FD91F4D
:102170002AA52D93019684309105B9F781E08093CB
:10218000640401C080E0DF91CF910895A0E0B0E049
:10219000ECECF0E10C94121280E880936100109254
:1021A000610080E08A95F1F78DE291E00E94B30C26
:1021B00082E00E94AD0C80E08A95F1F766E774E05A
:1021C00084E10E948A0C219A299A56985E9A0E946C
:1021D0007003789469E271E08DE291E00E9451070A
:1021E00080E590E00E94640734E0732E9924939474
:1021F00042E0842E60E971E088E592E00E94BA0D29
:102200008C01BC0180E991E00E94180AEC010115E3
:10221000110509F0C0C080918601811109C040E418
:1022200052E061E08EE191E00E94DF089092860129
:102230000E94D808811106C080918601813011F476
:102240008092860180918701811115C0809186015D
:102250008230E9F40E94610D882361F210928901B5
:10226000909287014FE154E06EE471E080E991E0E3
:102270000E94D20FBFCF813051F40E94A20F882359
:1022800031F0809287018BE194E00E94A80F809149
:102290008701823041F0809189018D3308F4AACF03
:1022A00010928701A7CF90918F019130E9F529987D
:1022B00080938F011092890180918C018F5F8093B0
:1022C0008C0168E571E089EE93E00E948A1260EF6C
:1022D00073E080E691E00E94C80EE9EEF3E0DF01D2
:1022E0000D900020E9F7BD016150710980918C01CA
:1022F0004AE090E00E94AE128FE1A82E84E0B82E52
:102300009BE1C92E94E0D92E24EFE22E23E0F22E99
:1023100009EE13E02BEE30E041EE50E06FE771E0A4
:1023200088EC90E00E94D90980918D01811109C04B
:102330004E9907C080918E018F5F80938E0190929D
:102340008D0180918F01811106C04E9904C0909239
:102350008A0190928F0180918F01843038F48091AE
:102360008901843B19F44E9910928F0180918F015D
:10237000823009F03FCF80918901873009F03ACF50
:1023800080918A01882309F435CF90928F01815082
:1023900080938A012FCF009731F4B80180E991E052
:1023A0000E94551027CF44E050E0BC0160577E4F9B
:1023B00080E891E00E949512892B31F00E949A02E8
:1023C00048EB50E0BC010BC0CE018C569E4F0E94E2
:1023D00061028F3F49F448E650E060E070E080E938
:1023E00091E00E94110613C0813039F480918F0171
:1023F000843039F410928F0104C0811102C07092B0
:102400008F010E949A0280E991E00E94A302BC0120
:1024100080E991E00E94A207EDCE2F923F924F9269
:102420005F926F927F928F929F92AF92BF92CF9264
:10243000DF92EF92FF920F931F93CF93DF93CDB76D
:10244000DEB7CA1BDB0B0FB6F894DEBF0FBECDBFE5
:1024500009942A88398848885F846E847D848C84B6
:102460009B84AA84B984C884DF80EE80FD800C81BF
:102470001B81AA81B981CE0FD11D0FB6F894DEBFA2
:102480000FBECDBFED010895FC0188279927E89480
:1024900021912032E9F3293010F02E30C8F32B328D
:1024A00041F02D3239F4689404C00E94B912820FB1
:1024B000911D219120532A30C0F31EF490958195EF
:1024C0009F4F0895911106C080538A5010F0865C8A
:1024D00006C0089599278827089585FDFBCF80625F
:1024E0009111F8CF81568A51E0F708959111F2CFFA
:1024F000803211F08930D9F70895FB01DC0104C066
:102500008D910190801921F441505040C8F7881BEB
:10251000990B0895FB01DC010D900020E9F711975C
:1025200001900D920020E1F70895FB01DC0141507C
:10253000504030F08D910190801919F40020B9F7C6
:10254000881B990B08954532510520F4423010F054
:102550000C94AE12FB011082CB010895BB274A30C8
:1025600031F4992322F4BDE2909581959F4F0C940C
:10257000C2127AE0979F902D879F802D910D112494
:102580000895BB27FB015527AA27880F991FAA1F6B
:10259000A41710F0A41B83955051B9F7A05DAA337E
:1025A00008F0A95DA193009779F7B111B193119249
:1025B000CB010C94DB12DC01FC01672F71917723B6
:1025C000E1F7329704C07C916D9370836291AE17EE
:0A25D000BF07C8F30895F894FFCF89
:1025DA006E6F6E6500000000000000000000000041
:1025EA0000000000000000000000000000000A00D7
:1025FA000002736563726574000A00001D54555821
:10260A0010002902FFFFFFFF500100010A08080815
:10261A00086D6E00707700446174653A2000696441
:10262A00656E74692E6361007374617475733D001D
:10263A0049206C696B652074757867726170686986
:10264A0063732065746820626F617264732C200062
:06265A004745542000007A
:00000001FF
