:100000000C94C0000C94DD000C94DD000C94DD0019
:100010000C94DD000C94DD000C94DD000C94DD00EC
:100020000C94DD000C94DD000C94DD000C940101B7
:100030000C94DD000C94DD000C94DD000C94DD00CC
:100040000C94DD000C94DD000C94DD000C94DD00BC
:100050000C94DD000C94DD000C94DD000C94DD00AC
:100060000C94DD000C94DD002F6367692D62696ECE
:100070002F75706C643F70773D73656326616374A0
:10008000696F6E3D6175746F266574686272645F36
:1000900069703D0074757867726170686963732E6A
:1000A0006F7267000D0A436F6E74656E742D54791C
:1000B00070653A206170706C69636174696F6E2F4E
:1000C000782D7777772D666F726D2D75726C656EF2
:1000D000636F6465640D0A0D0A00436F6E74656E8C
:1000E000742D4C656E6774683A20000D0A5573656F
:1000F000722D4167656E743A207467722F312E310C
:100100000D0A4163636570743A202A2F2A0D0A0094
:100110000D0A0020485454502F312E310D0A486FDB
:1001200073743A2000504F535420000D0A557365E4
:10013000722D4167656E743A207467722F312E31CB
:100140000D0A4163636570743A20746578742F6892
:10015000746D6C0D0A0D0A0020485454502F312E36
:10016000310D0A486F73743A20004745542000004F
:100170000108000604000145000082000040002044
:1001800011241FBECFEFD8E0DEBFCDBF11E0A0E04D
:10019000B1E0E0E6F5E202C005900D92A233B107AE
:1001A000D9F724E0A2E3B1E001C01D92A435B20763
:1001B000E1F70E9480100C94AE120C9400006130A4
:1001C00051F4FA01ADEEB3E081918D9383E0A33F4A
:1001D000B807D1F70895623049F4FA01A7EEB3E009
:1001E00081918D9383E0AD3EB807D1F70895883CA7
:1001F000910531F4809133018F5F80933301299A07
:1002000008951F920F920FB60F9211242F933F93D0
:100210004F935F936F937F938F939F93AF93BF930E
:10022000EF93FF938091C2038F5F8093C20380910D
:10023000C1038F5F8093C1038091C203863020F099
:100240001092C2030E94F20CFF91EF91BF91AF9107
:100250009F918F917F916F915F914F913F912F91DE
:100260000F900FBE0F901F9018951092850010925E
:100270008400109280008DE0809381008FE2809353
:1002800089008FEA8093880082E080936F00089550
:10029000A0E0B0E0EEE4F1E00C94E6116A0159014F
:1002A00090911404891759F0E0911104F09112040F
:1002B00040E050E060E070E084EF91E03DC061110B
:1002C0003CC02D303105C8F1E0901104F0901204CB
:1002D000E114F10491F1C0910504D0910604C40F1A
:1002E000D51F888590E00E944712892B01F18985EE
:1002F00090E0C0978A309105D0F40B8510E0005350
:1003000011090A30110598F44AE0489F9001499F6D
:10031000300D1124AA85B0E0D097A20FB31F4A9FD9
:10032000C0014B9F900D1124800F911F02C080E0EF
:1003300090E0A501B601F701099580E0CDB7DEB7E1
:10034000EAE00C940212FF920F931F93CF93DF9376
:10035000FB01413051F4AB014850510960E070E0BD
:100360004F5E5F4F6F4F7F4F0FC0423051F4AB0174
:100370004850510960E070E04A5F5F4F6F4F7F4F18
:1003800003C040E050E0BA01EF01DC01C230D1050A
:1003900098F00C9110E020E030E0322F212F102F48
:1003A00000271196FC9011970F29400F511F621FD3
:1003B000731F12962297EACFDF01AE7FA80FB91FF5
:1003C000E0FF0CC08C9190E0A0E0B0E0BA2FA92F24
:1003D000982F8827480F591F6A1F7B1FCB01AA2718
:1003E000BB270097A105B10519F066277727F2CF43
:1003F000CA0180959095CDB7DEB7E5E00C94071261
:10040000009741F026E0FC01ADE2B4E001900D92CE
:100410002A95E1F70895009721F46115710559F4C3
:100420000895DC01E9E2F4E08D91819384E0ED32FE
:10043000F807D1F7F2CFDB01E7E0F1E08D9181938E
:1004400081E0EB30F807D1F70895CF93DF93E9E22D
:10045000F4E0A7E0B1E0EC014991CE0121913D919A
:100460002427232331F4D4E0ED32FD07A1F780E007
:1004700001C081E0DF91CF910895DC015A96FB0124
:1004800080E02D919191291305C08F5F8430C9F7C9
:1004900081E0089580E0089569327105A8F0FC01BB
:1004A0002485283089F42585263071F4DC01969660
:1004B000E9E2F4E09D918191981306C084E0ED3269
:1004C000F807C1F781E0089580E00895FC016A32E1
:1004D0007105B0F08485883099F48585811110C04C
:1004E0008685853469F47E96A9E2B4E091918D9178
:1004F000981306C084E0AD32B807C1F781E00895D3
:1005000080E00895CF93DF93EDE2F4E0DC011696EE
:100510002C91EC012993CE0121912D93D4E0E3336A
:10052000FD07B1F7DF91CF910895CF93DF93EC01F1
:10053000188E198E80E48C8B1D8A8E8B40E064E1CE
:1005400070E0CE010E960E94A301988F898FDF91F3
:10055000CF910895CF93DF93EC016E96E9E2F4E03A
:10056000DC015A962C91299321912D9324E0ED32B0
:10057000F207C1F70E949502DF91CF910895FC0127
:10058000BA96DC019E9686962291620F711D2E917D
:100590006C93442311F0208301C01082672F7727CA
:1005A000E817F90789F70895CF93DF93EC018CA141
:1005B0009AA19CA38AA38DA19BA19DA38BA3CE01ED
:1005C0000E94BF021AAA1BAA80E58EA7DF91CF91D5
:1005D0000895CF93DF93EC010E9482021C8A82E08F
:1005E0008D8BCE0180964DE254E0DE0156962C9123
:1005F000FC012193CF01FA012191AF012D93F4E089
:1006000043335F07A1F7CE01869649E254E0DE014D
:100610005C962C91FC012193CF01FA012191AF014D
:100620002D93F4E04D325F07A1F7BE018AE290E01E
:100630000E941E0ADF91CF9108950F931F93CF93CD
:10064000DF93EC018B010E948202CE010E94AA027C
:100650001AA29CA1983F18F08DA18F5F8DA3985F7F
:100660009CA3BE01C8010E941E0ADF91CF911F9179
:100670000F910895FC01808990E0982F88272189A7
:10068000822B449726A522952F7034E0239F801952
:100690009109112497FF02C080E090E008959C0129
:1006A000CB01461B570BFA01E80FF91FE491EE232B
:1006B00039F0D901A80FB91FD696EC930196F3CF64
:1006C0000895DB01D696A80FB91FFA01420F4E1705
:1006D00019F081918D93FBCFCB01820F911D08956D
:1006E000FA0101900020E9F79F0121503109241BF4
:1006F000350B0E9461030895A5E0B0E0E2E8F3E065
:100700000C94EA11909114048913A4C080911304ED
:10071000009105041091060481112CC04AE651E0B5
:1007200060E070E0C8010E944F0340910B045091BB
:100730000C04BC01C8010E944F0340910904509170
:100740000A04BC01C8010E94700348E551E0BC01E5
:10075000C8010E944F034091070450910804BC0156
:10076000C8010E944F034BE251E0BC01C8010E9446
:100770004F0372C045E251E060E070E0C8010E94A2
:100780004F0340910B0450910C04BC01C8010E941E
:100790004F034091090450910A04BC01C8010E9412
:1007A000700343E151E0BC01C8010E944F03409136
:1007B000070450910804BC01C8010E944F03E09057
:1007C0000F04F0901004E114F10459F040E151E0FD
:1007D000BC01C8010E944F03A701BC01C8010E94CF
:1007E0004F034BEE50E0BC01C8010E944F034AED9D
:1007F00050E0BC01C8010E944F037C01A0910D0490
:10080000B0910E04FD0101900020E9F731974AE014
:10081000BE016F5F7F4FCF018A1B9B0B0E9471123D
:100820000091050410910604AE014F5F5F4FB701C0
:10083000C8010E94700344EA50E0BC01C8010E9454
:100840004F0340910D0450910E04BC01C8010E9459
:10085000700302C080E090E02596E6E00C9406125A
:10086000A3E0B0E0E6E3F4E00C94EC118C014B83E0
:1008700069837A830E9482024B81842F8061F80110
:1008800087A769817A81443029F06115710511F4D7
:1008900061E070E041E0C8010E94D402F801108AD2
:1008A00088E2818BC8010E94AA0284E0F80180AB33
:1008B00011AA42E06CE170E0C8014A960E94A301CF
:1008C000F80192AB83ABB80186E390E00E941E0A68
:1008D0002396E4E00C9408120F931F93CF93DF93B9
:1008E000EC018B01CB018896988B898BCE010E94FD
:1008F00095021AAA1BAAB801645E7F4F42E0CE019E
:100900004A960E94A3019AAB8BABBE01C801C69662
:100910000E941E0ADF91CF911F910F910895640FDD
:10092000751F4617570741F0FA012491FC012193E6
:10093000CF014F5F5F4FF5CF0895A2E0B0E0E3EA4B
:10094000F4E00C94E6115C01F62EE72E6A01EDE26C
:10095000F4E0B5016A5F7F4FD8014D918D01DC0154
:100960004D93CD014191DB014D93BD01B4E0E333E3
:10097000FB0791F788E0F5018487158647E751E08A
:1009800069E070E0C5010E9629833A830E948F04C6
:1009900080910601D50153968C9353978F5F809376
:1009A000060150961C92509781E157968C938601D0
:1009B000C5014E96A9E2B4E03A812981F80141913E
:1009C0008F01FC014193CF016D91AF014550510959
:1009D000FA016083F4E0AD32BF0781F7D501949648
:1009E0003C93949795962C9395979296EC92929728
:1009F0009396FC92939796961C92969798961C9233
:100A0000989799961C922296EAE00C9402120F9302
:100A10001F93CF93DF93EC018B01CB014C96898B15
:100A2000988BCE010E949502C80108968FA39EA3C1
:100A3000B801605F7F4F41E0CE014A960E94A3015A
:100A400089A798A7BE01C8018A960E941E0ADF9155
:100A5000CF911F910F910895A0E0B0E0E2E3F5E09F
:100A60000C94E511EC01B62EA72E942EB901A80125
:100A7000970186010E949D04692D6D3D08F06CED83
:100A80009B2DDE019A96EB2DFA2D8E2F891B861752
:100A900018F481918D93F9CF70E0CE010E94070583
:100AA000CDB7DEB7EBE00C9401120F931F93CF93F9
:100AB000DF93EC018B0180912904882309F448C05D
:100AC000CE01AE014A5F5F4FEDE2F4E03FEFDC01A3
:100AD0003D93CD012191DA012D93AD01B4E0E333D3
:100AE000FB07A9F788E08C8786E08D874FE651E009
:100AF00068E070E0CE010E960E948F04DE019096B1
:100B00004DE254E0FA012191AF01CD010A97FC01B9
:100B100020831D92F4E043335F07A1F7B801CE01B3
:100B20008696A9E2B4E0FB012191BF01FC0121936B
:100B3000CF014D919F012B503109F9014083F4E021
:100B4000AD32BF0781F7BE018AE290E00E941E0A23
:100B5000DF91CF911F910F91089581E09091000452
:100B6000923009F480E00895509353044093520466
:100B700021E0209300046093FF03E1E0F4E0DC0156
:100B80002D91CD012193B4E0E530FB07C1F7089525
:100B9000FF920F931F93CF93DF93EC01162F042F37
:100BA000F52EECE1F4E09C018DE294E0BE016A5F79
:100BB0007F4F4191D9014D939D01DC014D91CD01B4
:100BC000DB014D93BD01B4E0E232FB0791F788E011
:100BD0008C871D8647E751E069E070E0CE010E96F4
:100BE0000E948F048CE2898B809106018B8B8F5F32
:100BF0008093060186E08F8B62E274E0DE015E96F0
:100C000089E294E0FB012191BF012D93FC01419108
:100C1000CF019D0125503109F9014083F4E066328E
:100C20007F0781F7CE010E949502FCA20DA38BE005
:100C30008AA31BA3FE01B69688E011928150E9F7C2
:100C400080910E0188A78D5F80930E0180E68EA7AC
:100C500082E08FA793E098AB19AA1AAA1BAA1CAA34
:100C60001DAA8EAB94E09FAB88AF8EEE89AF42E0B9
:100C700060E270E0CE014A960E94A3019AAB8BAB72
:100C8000BE018AE390E00E941E0ACDB7DEB7E5E020
:100C90000C9407120F931F939093180480931704DA
:100CA0007093160460931504F901A2E2B4E08191F7
:100CB0008D9384E0A632B807D1F7F801ACE1B4E037
:100CC00081918D9384E0A232B807D1F750931A0432
:100CD0004093190481E080931B04809126048F5F68
:100CE000883018F48093260402C010922604809164
:100CF00026041F910F910895A0E0B0E0E2E8F6E02D
:100D00000C94E211EC016B015A0139014801870191
:100D10000E94170A8823E9F0D0930C04C0930B04B7
:100D2000D0920A04C0920904B0920804A092070469
:100D3000109213047092120460921104940140E521
:100D400050E06CE773E088E491E00E944A068093EB
:100D50001404CDB7DEB7EEE00C94FE11A0E0B0E0D5
:100D6000E4EBF6E00C94E011EC014B013A012901AF
:100D70000E94170A882339F1D0930C04C0930B0406
:100D8000709208046092070490920A048092090409
:100D90005092100440920F0410930E0400930D041F
:100DA00081E080931304F0921204E0921104850113
:100DB000960140E550E06CE773E088E491E00E9422
:100DC0004A0680931404CDB7DEB7E0E10C94FC1121
:100DD00090932804809327040895A1E0B0E0E3EF06
:100DE000F6E00C94E8116C017B016115710509F0C6
:100DF00054C080910004893079F480910B01909166
:100E00000C01892B49F40E94170A882329F061E01C
:100E100074E0C6010E94550580910004813091F470
:100E20000E94170A882371F061E074E0C6010E94F5
:100E300055058091000488608093000410920C0195
:100E400010920B0180910B0190910C0101969093EF
:100E50000C0180930B0180911B04813009F041C18A
:100E60000E94170A882309F43CC182E080931B0486
:100E700060910D016F5F60930D01409119045091D5
:100E80001A046F718091260420E2829FC001112410
:100E9000682BC6010E94C80524C10E944C02882309
:100EA00059F1D60155968C91813019F4C6010E94F2
:100EB000E9028091000483FF14C1F6011589123004
:100EC00009F00FC144E050E061E074E0C6014C96C7
:100ED0000E944E12892B09F004C1A6014A5E5F4FA1
:100EE000E0915204F09153046091FF0381E094E09B
:100EF000099510930004F5C0B701C6010E9466026F
:100F0000882309F4EEC0D60157968C91579781300B
:100F100099F492968C91883009F0E3C0E09127040F
:100F2000F0912804309719F0C6014A960995B70147
:100F3000C6010E941D03D5C0B6E3EB16F10408F408
:100F4000D0C0863009F0CDC0F60184A18B3009F005
:100F5000C8C0D0920604C092050462E274E0C601E3
:100F60000E943D02882309F4BCC0D6019F962C91B3
:100F70009F9722FF13C0E0911704F0911804309757
:100F800009F488C095968C9120E030E040E050E074
:100F900063E082958695877009957CC0C601298398
:100FA0000E943A038C0180911B042981823099F5BB
:100FB000822F80712271223109F540E060E070E0FB
:100FC000C6010E94300488E1F60187A7E09115046C
:100FD000F0911604309741F0D60193968C9182954A
:100FE00086958770099502C080E090E023E0209309
:100FF0001B04BC01C6010E946C0473C091E0909375
:101000001B04811104C0B8016F5F7F4F02C060E014
:1010100070E044E063C08330A9F50115110591F13A
:1010200084E080931B04E0911704F091180430973A
:1010300049F1D6019E964C9142954F70B4E04B9F7A
:10104000A0011124C70108974E5D5F4F84179507D3
:1010500008F4AC01C801840F951FE816F90620F4C6
:101060009701241B350B01C09801D60195968C91F0
:1010700060E08295869587700995882319F049E08C
:10108000B80120C090911B04F60187A5953021F48A
:1010900084FF27C086E01AC0963071F484FD04C036
:1010A000B8016F5F7F4F02C060E070E044E0C601AE
:1010B0000E94300487E00AC080FF0BC0B8016F5F58
:1010C0007F4F41E0C6010E94300485E080931B04FD
:1010D00008C00115110529F040E0B801C6010E94C1
:1010E000300480E090E02196E8E00C9404122A9805
:1010F000962F9F71982B9EBD0DB407FEFDCF1EBC91
:101100000DB407FEFDCF67FD03C02A9A8EB5089582
:101110001EBC0DB407FEFDCFF8CF2A986F71682B67
:101120006EBD0DB407FEFDCF4EBD0DB407FEFDCF65
:101130002A9A0895FB012A982AE32EBD0DB407FED2
:10114000FDCF8E0F9F1FE817F90739F01EBC0DB4B5
:1011500007FEFDCF2EB52193F6CF10822A9A08956F
:101160002A982AE72EBD0DB407FEFDCF860F971FE4
:101170006817790741F0FB012191BF012EBD0DB425
:1011800007FEFDCFF5CF2A9A08951F93CF93DF93E3
:10119000182F1076C12FD0E02091350430E0C2170F
:1011A000D30789F043E06FE180EA0E948D08AE0129
:1011B00085E0559547958A95E1F76FE180E80E94B3
:1011C0008D0810933504DF91CF911F910895A1E010
:1011D000B0E0EDEEF8E00C94EE11682F69830E9408
:1011E000C508698180E00E9477082196E2E00C94AE
:1011F0000A12A1E0B0E0EFEFF8E00C94ED11182F27
:1012000069830E94C5084981612F80E40E948D088E
:101210002196E3E00C940912CF93682F84ED0E948D
:10122000F90861E082ED0E94F9088AEE0E94E70861
:1012300080FDFBCF60E082ED0E94F90889ED0E94FD
:10124000E708C82F88ED0E94E7082C2F30E0322FE6
:101250002227A901482BCA01CF910895A1E0B0E04F
:10126000E4E3F9E00C94ED11162F682F84ED7983F7
:101270000E94F908612F86ED0E94F9087981672F95
:1012800087ED0E94F90818E28AEE0E94E70880FFC5
:1012900004C0812F8A95F1F7F7CF2196E3E00C94F3
:1012A0000912682F677085E70E94F9080895CF93A7
:1012B000DF93EC01229A2A9A84B1886284B9249837
:1012C0002B982D9880E58CBD8DB581608DBD4FEF3D
:1012D00060E08FEF0E948D0880E090E00197F1F7C9
:1012E000109234041092330460E088E00E94F90800
:1012F00060E089E00E94F90860E08CE00E94F90853
:1013000060E08DE00E94F9086FEF8AE00E94F90822
:1013100069E18BE00E94F90860E084E00E94F9082E
:101320006AE185E00E94F9086FEF86E00E94F90803
:101330006FE187E00E94F90860EB88E30E94F908FA
:101340006FE388E20E94F90860E389E20E94F908ED
:1013500069EF80E30E94F90867EF81E30E94F908D2
:101360006DE080EC0E94F90860E081EC0E94F908D1
:1013700042E362EC80E80E948D0862E186EC0E9404
:10138000F9086CE087EC0E94F90862E184EC0E94A5
:10139000F9086CED8AEC0E94F90865E08BEC0E947C
:1013A000F908688184EE0E94F908698185EE0E943F
:1013B000F9086A8182EE0E94F9086B8183EE0E942F
:1013C000F9086C8180EE0E94F9086D8181EE0E941F
:1013D000F90860E071E080E10E942E098FE10E942F
:1013E000C50840EC6BE180E80E948D0844E06FE1A5
:1013F00080E80E948D08DF91CF91089582E70E94D6
:10140000E708863008F08F5F089588E30E94E708B8
:10141000682F616088E30E94F908089588E30E94BC
:10142000E708682F6E7F88E30E94F908089581E13C
:101430000E940C0992FB882780F908950F931F934F
:10144000CF93DF93EC018B016FE180E00E9477087E
:1014500083FDFACF8CE10E94E70881FF13C040E8CA
:101460006FE180E80E948D0840E86FE180EA0E9409
:101470008D0842E06CE180EA0E948D0880E395E7E8
:101480000197F1F760E082E00E94F9086AE183E0E9
:101490000E94F9086C2F86E00E94F908CE01965E42
:1014A000692F87E00E94F90840E060E08AE70E9427
:1014B0008D08B801CE010E94B00848E06FE180E8D5
:1014C0000E948D08DF91CF911F910F91089589E3BC
:1014D0000E94E70891E0811101C090E0892F0895F2
:1014E000A0E0B0E0E6E7FAE00C94E5117C016B01C6
:1014F00089E30E94E708882309F45CC06091330403
:10150000C091340480E00E94F9086C2F81E00E94B1
:10151000F90860E08AE30E947708082F60E08AE318
:101520000E94770810E0182B1093340400933304C2
:1015300060E08AE30E947708C82F60E08AE30E9497
:101540007708982E60E08AE30E947708A82EB12CD5
:1015500060E08AE30E947708A7FE0FC09701215040
:101560003109D0E0D92924972C173D0708F4E90167
:10157000B601CE010E949A0802C0C0E0D0E06FEF31
:1015800001308AE118072CF08CE00E94F90869E12B
:1015900007C0600F8CE00E94F90801501109612F0B
:1015A0008DE00E94F90840E46EE180E80E948D0819
:1015B000CE0102C080E090E0CDB7DEB7EBE00C9446
:1015C0000112FB01982F9F709A3014F4905D01C0B6
:1015D000995A918382958F708A3014F4805D01C08E
:1015E000895A808312820895AF92BF92DF92EF9260
:1015F000FF920F931F93CF93DF931F92CDB7DEB768
:101600005B018C0185E2D82EF80121918F01222304
:10161000F9F0C50101967C01203259F0822F9927FB
:1016200087FD909529830E9433122981892B11F41B
:1016300005C02BE2F50120835701E6CFF501D082EA
:10164000B701822F0E94E10AF3E0AF0EB11CDCCF9C
:10165000F50110820F90DF91CF911F910F91FF90B4
:10166000EF90DF90BF90AF900895A5E0B0E0EBE37E
:10167000FBE00C94E8118C01FC01108211821282B3
:1016800013827B0130E020E0F70141917F01442388
:1016900061F13430D8F5233090F4842F992787FDF9
:1016A0009095C0970A9748F4E1E0F0E0EC0FFD1F39
:1016B000E20FF11D40832F5F02C0222329F34E3237
:1016C00019F7E1E0F0E0EC0FFD1FE20FF11D1082D1
:1016D0006801C30ED11CCE0101963D830E941512F4
:1016E000F60180833D813F5FCECF333079F4E1E076
:1016F000F0E0EC0FFD1FE20FF11D1082CE0101960C
:101700000E941512F801838380E001C081E02596D4
:10171000E8E00C9404128F929F92BF92CF92DF92D6
:10172000EF92FF920F931F93CF93DF931F92CDB74A
:10173000DEB77C01C42EB62E4B01D12C10E0882DD3
:101740008B198C15C8F4F40181914F01A801B701E0
:101750006D0D711D90E029830E9466122981F701A9
:10176000ED0DF11D8081882311F0D394F8CF222351
:1017700031F32083D394E3CFDA94F701ED0DF11D1B
:1017800010820F90DF91CF911F910F91FF90EF90FA
:10179000DF90CF90BF909F908F90089580913B04F1
:1017A0000895809136040895E7E3F4E02191DC0187
:1017B0002D93CD01B4E0EB33FB07C1F7089550E062
:1017C00040E0FC016191CF01662389F0262F332789
:1017D00027FD3095205331092A30310530F06E3223
:1017E00059F4413049F45F5FEBCF41E0EACF41303B
:1017F00019F481E0533009F080E00895EF92FF92F0
:101800000F931F93CF93DF93EC01F62EE72E8A01FF
:1018100010923B040E94170A811105C084E0809356
:10182000360481E069C01092360480913C048F5FD9
:1018300080933C04682F70E0706E25E330E04FE049
:1018400051E0CE010E949D0480913C048BA781E071
:101850008CA7FE01BD9683E011928F5F8C30E1F77B
:1018600081E08FA7EF2DFE2D21E03CE04DE04F19E8
:10187000642F6E0F5081862F90E0552391F05E32D9
:1018800041F4DE01A30FB11D21509A962C93362FFF
:1018900020E0DE01A80FB91F51919A965C932F5F4B
:1018A000E7CFFE01E30FF11D215022A7FE01E80F53
:1018B000F91F12A681E0860FFE01E80FF11D12A6A6
:1018C00082E0860FFE01E80FF11D81E082A793E020
:1018D000960FFE01E90FF11D12A694E0960FFE018E
:1018E000E90FF11D82A789EF860F8AA76B5F70E071
:1018F000CE010E94070580E0CDB7DEB7E6E00C948C
:101900000612CF93DF93FC016634710508F466C0BC
:1019100083A1853309F062C084A1803E09F05EC0D6
:1019200085A190913C04891359C093A5981356C082
:1019300085A58F78803811F081E039C022A5245F19
:1019400061537109DF01A20FB11D9A968C91807CC1
:1019500061F02E5F0FC081E0820FDF01A80FB11D83
:101960009A969C919923A9F3282F822F90E08617AD
:10197000970788F3DF01A20FB11D9B968C919B976F
:10198000813081F088E0820FDF01A80FB11D9B96A6
:101990008C91265F280F822F90E08617970790F290
:1019A00083E005C0D3968C91843021F082E080934F
:1019B000360414C0265FA7E3B4E080E090E0E20FB5
:1019C000F11DEF01C80FD91F2AA52D930196843070
:1019D0009105B9F781E080933B0401C080E0DF917D
:1019E000CF910895809151048F5F809351040895A1
:1019F000A6E0B0E0EEEFFCE00C94E9117C01D62EFD
:101A000086E0E5E1F1E0DE01119601900D928A9504
:101A1000E1F78E010F5F1F4F23E430E0A80164E47B
:101A200070E0C7010E949D04F701128E138E148E80
:101A3000158E81E082A783A796E094A715A686A7B6
:101A4000D7A6D0AAD1AAF29684E111928150E9F7E3
:101A5000F701EA5BFF4FDF01A054B1099C9191931C
:101A60008F5F8630C1F7F701E45BFF4F82E211928E
:101A70008F5F8C3EE1F7F701EA5EFE4F83E68083DD
:101A8000319692E89083319693E5908331968083E6
:101A90002696E7E00C940512CF93DF93EC010E94A9
:101AA000F80CFE01E65EFE4F85E38083319681E00F
:101AB000808331968083319697E39083319692E0CC
:101AC000908331968083319683E0808331968FEFC7
:101AD00080833196108268EF70E0CE010E94070586
:101AE00080E0DF91CF9108956D3121E0720700F120
:101AF0002AE131E0A9014E5F5F4F46175707C0F456
:101B0000FC01E20FF31FA181AA2391F02A0F311DDE
:101B1000D90111966A177B0758F0E081E53329F463
:101B2000FC01E40FF51F808108952E5F3F4FE2CF47
:101B300080E008956F3F710599F090F0FC0122ADAF
:101B4000222371F082AD93ADA4ADB5AD80934D0469
:101B500090934E04A0934F04B093500481E00895F5
:101B600080E00895FC016F3F710569F060F083A18A
:101B7000833449F482A5823031F497A5941303C0CD
:101B800081E020A9291380E00895FC016F3F7105D1
:101B900029F020F081E096A5923009F080E00895C8
:101BA000A0E0B0E0E6EDFDE00C94E411EB016D3156
:101BB00011E0710708F4CEC020913D0430913E043D
:101BC000D090400440E050E0BA01EAE1F1E04F017A
:101BD00012E0810E911C8C169D0658F47F01AFEF28
:101BE000EA1AFA0A8C010E0D1F1DD801BC90B11023
:101BF00008C030933E0420933D04D092400481E01D
:101C0000AAC00B2D10E0E00EF11ECE15DF0588F303
:101C10007C01EE0EFF1ED701CC90B3E0CB1659F13C
:101C2000BC1538F0CC2009F486C0A1E0CA1669F0D2
:101C30008CC0B5E3CB1609F463C0A6E3CA1609F459
:101C400064C0B3E3CB1281C02CC0A4E0BA127DC043
:101C50007C01E80CF91CA5E4AA2EA4E0BA2ED70159
:101C6000CD907D01D501CD925D01B9E4AB16B4E014
:101C7000BB06A9F76AC0A4E0BA1267C07C01E80CF1
:101C8000F91CB9E4AB2EB4E0BB2ED701CD907D0199
:101C9000D501CD925D01BDE4AB16B4E0BB06A9F75A
:101CA00054C024E0B21249C020E030E0762F652F06
:101CB000542F4427D701A20FB31F1296AC914A2B81
:101CC0002F5F3F4F2430310589F74F3FAFEF5A0761
:101CD0006A077A07A9F1B6E0769567955795479513
:101CE000BA95D1F74E3FBFEF5B076105710528F448
:101CF0004530510540F19A0128C02DEF3FEF25C036
:101D0000D401A80FB91FDC9020C0A4E0BA121DC0F6
:101D10007C01E80CF91CA1E4AA2EA4E0BA2ED7019C
:101D2000CD907D01D501CD925D01B5E4AB16B4E057
:101D3000BB06A9F70AC0FE0108C020EA35E005C0CD
:101D40002FEF3FEF02C025E030E00E5F1F4FE00FA6
:101D5000F11F3DCF80E0CDB7DEB7ECE00C94001270
:101D6000CF93DF93EC010E94F80CFE01E65EFE4F7C
:101D700085E38083319681E08083319683E08083A0
:101D8000809141048823A9F086E33196808384E022
:101D90003196808340914104509142046091430404
:101DA000709144043196408351836283738329E0A8
:101DB00001C023E080914D048823C9F0CE01820F39
:101DC000911DFC01E65EFE4F32E33083319634E034
:101DD0003083319640914D0450914E0460914F04F0
:101DE0007091500440835183628373832A5F622F12
:101DF00070E0CE01860F971FFC01E65EFE4F27E3E1
:101E00002083319622E02083319621E02083319691
:101E100023E0208331962FEF2083319610826B5080
:101E20007F4FCE010E94070580E0DF91CF9108959A
:101E3000EF92FF920F931F93CF93DF93EC017A0100
:101E40000E94F80C82E08EA7F701008111812281A7
:101E500033810A8F1B8F2C8F3D8F4081518162818E
:101E600073814EAB5FAB68AF79AFFE01E65EFE4FAC
:101E700085E38083319681E08083319683E080839F
:101E800063EF70E0CE010E94070580E0CDB7DEB7BA
:101E9000E6E00C940612CF92DF92FF920F931F930D
:101EA000CF93DF931F92CDB7DEB76C018B014983CF
:101EB0000E94170A4981882309F469C00115110598
:101EC00091F580911301909114018230910559F49C
:101ED00081E090E0909314018093130110925104DB
:101EE00040933F040FC020914D04211113C0209155
:101EF0005104263078F080913F048F5F80933F0437
:101F0000109251040E94050A60913F04C6010E948C
:101F10004C0D3DC083309105D0F101979093140191
:101F20008093130134C0F0903F044F2DB801C601D7
:101F30000E94B20D882359F1B801C6010E94C50D57
:101F4000813029F1B801C6010E94740D823099F4E4
:101F500081E090E09093140180931301B801C601D1
:101F60000E949A0DB801C6010E94D00D6F2DC601C6
:101F70000E94B00E0CC0853051F481E090E0909347
:101F80001401809313010E940E0A81E001C080E0D9
:101F90000F90DF91CF911F910F91FF90DF90CF9025
:101FA00008950F931F93009769F000914D041091CD
:101FB0004E0420914F0430915004FC0100831183A2
:101FC000228333836115710569F0809145049091F6
:101FD0004604A0914704B0914804FB01808391839B
:101FE000A283B3834115510569F080914904909112
:101FF0004A04A0914B04B0914C04FA018083918370
:10200000A283B3831F910F9108950F931F93CF93D2
:10201000DF938C01EB0180915104893088F010929C
:10202000510480913D0490913E049C01225031095D
:102030002D3F3F4F28F4019790933E0480933D0439
:102040002097D9F480913D0490913E04039768F560
:102050000E94170A882349F160913F046F5F6093E3
:102060003F044DE454E0C8010E94180F85E090E061
:1020700090933E0480933D0418C040913F04BE01FC
:10208000C8010E94B20D882399F0BE01C8010E94C8
:10209000740D853051F4BE01C8010E94C50D88231E
:1020A00021F0BE01C8010E94D00D80E090E001C087
:1020B000CE01DF91CF911F910F910895982F9770C6
:1020C000906C90937C00863040F421E030E001C0B9
:1020D000220F8A95EAF720937E0087E880937A00A2
:1020E00080917A00806480937A0080917A0086FDE6
:1020F000FCCF809178002091790090E0922B089598
:10210000A4E1B0E0E6E8F0E10C94E611219A299808
:10211000509A589A80E8809361001092610080E0A4
:102120008A95F1F780E091E00E94570982E00E94D1
:10213000510980E08A95F1F70E943501789466E7AD
:1021400074E084E10E942E09299880E091E00E94C9
:10215000000265E371E08AE892E00E94700A109242
:10216000BF0340910501BC0185E391E00E944B0F44
:10217000882379F343EF53E063EE73E087EF93E056
:102180000E94D10F63EE73E087EF93E00E940B0291
:10219000299A8091F303811102C05898FFCF2998A2
:1021A0004FED50E061E083EF93E00E94B4050E94A0
:1021B000AD05882361F065E371E08AE892E00E9452
:1021C000700ABC0185E391E00E94ED06F0CF299AE8
:1021D0008BE191E00E94DF0B811109C0DD24D394D3
:1021E00092E0C92E25E0B22E33E0A32E1FC06BE192
:1021F00071E08BEF93E00E94350B82E08093320117
:10220000EDCF80913201811129C00E94170A8823E5
:1022100069F01092C103D09232014DEE53E06BE1B0
:1022200071E085E391E00E94FE0B299865E371E07F
:102230008AE892E00E94700A1092BF03BC0185E315
:1022400091E00E9405108C01BC0185E391E00E94A1
:10225000ED060115110509F0A8C0D3CF813059F45E
:102260000E94CE0B882339F08BEF93E00E94D40BB1
:10227000C0923201299A809132018230F9F48BEFB9
:1022800093E00E942502882371F0EDEEF3E0A7EEC3
:10229000B3E081918D9383E0E33FF807D1F784E0C9
:1022A00080933201C3CF29984FED50E062E08BEF6D
:1022B00093E00E94B405A0923201B8CF833041F47C
:1022C0000E94AD05811104C0299A84E080933201F7
:1022D00080913201843041F4B09232018091340116
:1022E000811102C0D092340180913201813041F4D9
:1022F0008091C103853108F499CF1092320196CFB5
:10230000809134018130E1F529981092C103109237
:10231000C003C09234010AE02EE244E067EF73E0AC
:10232000CE0101960E948B0B63EC73E0CE01019607
:102330000E94F40A6BE271E083EC93E00E945B126E
:1023400080E00E945E104AE0BE016F5F7F4F0E94F6
:102350007112BE016F5F7F4F83EC93E00E945B12AE
:1023600087EEE82E83E0F82E0BEF13E027EF30E046
:1023700044E950E063EC73E088E690E00E947C065C
:102380008091C1038C3338F01092C1038091C00357
:102390008F5F8093C0038091C0038C3308F446CFD5
:1023A0001092C003D092340141CF892B09F03ECF67
:1023B000B80185E391E00E94810C38CF2F923F92C3
:1023C0004F925F926F927F928F929F92AF92BF9245
:1023D000CF92DF92EF92FF920F931F93CF93DF93F1
:1023E000CDB7DEB7CA1BDB0B0FB6F894DEBF0FBE4E
:1023F000CDBF09942A88398848885F846E847D849B
:102400008C849B84AA84B984C884DF80EE80FD809C
:102410000C811B81AA81B981CE0FD11D0FB6F89412
:10242000DEBF0FBECDBFED010895FC0188279927BF
:10243000E89421912032E9F3293010F02E30C8F3CE
:102440002B3241F02D3239F4689404C00E947C1282
:10245000820F911D219120532A30C0F31EF49095D4
:1024600081959F4F0895911106C080538A5010F0B6
:10247000865C06C0089599278827089585FDFBCFBF
:1024800080629111F8CF81568A51E0F70895911139
:10249000F2CF803211F08930D9F70895FB01DC01C9
:1024A00004C08D910190801921F441505040C8F72B
:1024B000881B990B0895FB01DC010D900020E9F7C2
:1024C000119701900D920020E1F7089545325105D2
:1024D00020F4423010F00C947112FB011082CB01F9
:1024E0000895BB274A3031F4992322F4BDE2909538
:1024F00081959F4F0C9485127AE0979F902D879F2E
:10250000802D910D11240895BB27FB015527AA2783
:10251000880F991FAA1FA41710F0A41B8395505170
:10252000B9F7A05DAA3308F0A95DA193009779F7E8
:10253000B111B1931192CB010C949E12DC01FC01FC
:10254000672F71917723E1F7329704C07C916D93E7
:1025500070836291AE17BF07C8F30895F894FFCF58
:1025600054555810002902FFFFFFFF0100010A081F
:10257000080808FF5FFFFFFFFFFFFF7475786772B1
:102580006170686963732E6F7267002661646330DF
:022590003D000C
:00000001FF
