:100000000C94C0000C94DD000C94DD000C94DD0019
:100010000C94DD000C94DD000C94DD000C94DD00EC
:100020000C94DD000C94DD000C94DD000C94F000C9
:100030000C94DD000C94DD000C94DD000C94DD00CC
:100040000C94DD000C94DD000C94DD000C94DD00BC
:100050000C94DD000C94DD000C94DD000C94DD00AC
:100060000C94DD000C94DD002F6367692D62696ECE
:100070002F75706C643F70773D73656326616374A0
:10008000696F6E3D62746E266574686272645F6942
:10009000703D0074757867726170686963732E6F64
:1000A0007267000D0A436F6E74656E742D5479701B
:1000B000653A206170706C69636174696F6E2F7846
:1000C0002D7777772D666F726D2D75726C656E6307
:1000D0006F6465640D0A0D0A00436F6E74656E747B
:1000E0002D4C656E6774683A20000D0A5573657271
:1000F0002D4167656E743A207467722F312E310D71
:100100000A4163636570743A202A2F2A0D0A000D94
:100110000A0020485454502F312E310D0A486F7375
:10012000743A2000504F535420000D0A55736572E5
:100130002D4167656E743A207467722F312E310D30
:100140000A4163636570743A20746578742F68742B
:100150006D6C0D0A0D0A0020485454502F312E3179
:100160000D0A486F73743A2000474554200000017F
:100170000800060400014500008200004000200045
:1001800011241FBECFEFD8E0DEBFCDBF11E0A0E04D
:10019000B1E0E2E2F4E202C005900D92AC32B107A8
:1001A000D9F724E0ACE2B1E001C01D92A534B2075A
:1001B000E1F70E944D100C940F120C940000883C43
:1001C000910509F4299A0895613049F4FA01AEEDD8
:1001D000B3E081918D9383E0A43EB807D1F70895F1
:1001E0001F920F920FB60F9211242F933F934F93AC
:1001F0005F936F937F938F939F93AF93BF93EF938F
:10020000FF938091BB038F5F8093BB038091BA0300
:100210008F5F8093BA038091BB03863020F01092E9
:10022000BB030E94E10CFF91EF91BF91AF919F91B1
:100230008F917F916F915F914F913F912F910F908F
:100240000FBE0F901F901895109285001092840099
:10025000109280008DE0809381008FE2809389006E
:100260008FEA8093880082E080936F000895A0E079
:10027000B0E0EDE3F1E00C9452116A015901909164
:100280000504891759F0E0910204F091030440E05D
:1002900050E060E070E084EF91E03DC061113CC04F
:1002A0002D303105C8F1E0900204F0900304E11410
:1002B000F10491F1C091F603D091F703C40FD51F5B
:1002C000888590E00E94B311892B01F1898590E027
:1002D000C0978A309105D0F40B8510E000531109C6
:1002E0000A30110598F44AE0489F9001499F300D6B
:1002F0001124AA85B0E0D097A20FB31F4A9FC00176
:100300004B9F900D1124800F911F02C080E090E060
:10031000A501B601F701099580E0CDB7DEB7EAE0A7
:100320000C946E11FF920F931F93CF93DF93FB01F9
:10033000413051F4AB014850510960E070E04F5E2C
:100340005F4F6F4F7F4F0FC0423051F4AB014850A9
:10035000510960E070E04A5F5F4F6F4F7F4F03C00D
:1003600040E050E0BA01EF01DC01C230D10598F065
:100370000C9110E020E030E0322F212F102F0027C9
:100380001196FC9011970F29400F511F621F731F88
:1003900012962297EACFDF01AE7FA80FB91FE0FFC8
:1003A0000CC08C9190E0A0E0B0E0BA2FA92F982F5C
:1003B0008827480F591F6A1F7B1FCB01AA27BB271D
:1003C0000097A105B10519F066277727F2CFCA017A
:1003D00080959095CDB7DEB7E5E00C94731100974A
:1003E00041F026E0FC01AEE1B4E001900D922A95C7
:1003F000E1F70895009721F46115710559F4089506
:10040000DC01EAE1F4E08D91819384E0EE31F807BC
:10041000D1F7F2CFDB01E7E0F1E08D91819381E04C
:10042000EB30F807D1F70895CF93DF93EAE1F4E0DA
:10043000A7E0B1E0EC014991CE0121913D91242743
:10044000232331F4D4E0EE31FD07A1F780E001C0B1
:1004500081E0DF91CF910895DC015A96FB0180E0A5
:100460002D919191291305C08F5F8430C9F781E0E8
:10047000089580E0089569327105A8F0FC01248593
:10048000283089F42585263071F4DC019696EAE15E
:10049000F4E09D918191981306C084E0EE31F80755
:1004A000C1F781E0089580E00895FC016A3271058A
:1004B000B0F08485883099F48585811110C08685D7
:1004C000853469F47E96AAE1B4E091918D919813F8
:1004D00006C084E0AE31B807C1F781E0089580E03E
:1004E0000895CF93DF93EEE1F4E0DC0116962C91B2
:1004F000EC012993CE0121912D93D4E0E432FD0744
:10050000B1F7DF91CF910895CF93DF93EC01188E6F
:10051000198E80E48C8B1D8A8E8B40E064E170E044
:10052000CE010E960E949201988F898FDF91CF9114
:100530000895CF93DF93EC016E96EAE1F4E0DC01DD
:100540005A962C91299321912D9324E0EE31F207B4
:10055000C1F70E948402DF91CF910895FC01BA9601
:10056000DC019E9686962291620F711D2E916C93EE
:10057000442311F0208301C01082672F7727E817EA
:10058000F90789F70895CF93DF93EC018CA19AA125
:100590009CA38AA38DA19BA19DA38BA3CE010E94A6
:1005A000AE021AAA1BAA80E58EA7DF91CF9108950B
:1005B000CF93DF93EC010E9471021C8A82E08D8B45
:1005C000CE0180964EE154E0DE0156962C91FC015E
:1005D0002193CF01FA012191AF012D93F4E0443230
:1005E0005F07A1F7CE0186964AE154E0DE015C96F2
:1005F0002C91FC012193CF01FA012191AF012D93A0
:10060000F4E04E315F07A1F7BE018AE290E00E945C
:100610000D0ADF91CF9108950F931F93CF93DF932E
:10062000EC018B010E947102CE010E9499021AA274
:100630009CA1983F18F08DA18F5F8DA3985F9CA31C
:10064000BE01C8010E940D0ADF91CF911F910F9149
:100650000895FC01808990E0982F88272189822BBA
:10066000449726A522952F7034E0239F8019910985
:10067000112497FF02C080E090E008959C01CB0117
:10068000461B570BFA01E80FF91FE491EE2339F0EE
:10069000D901A80FB91FD696EC930196F3CF089510
:1006A000DB01D696A80FB91FFA01420F4E1719F0B9
:1006B00081918D93FBCFCB01820F911D0895FA019B
:1006C00001900020E9F79F0121503109241B350BCF
:1006D0000E9450030895A5E0B0E0E1E7F3E00C9438
:1006E0005611909105048913A4C0809104040091CF
:1006F000F6031091F70381112CC049E651E060E048
:1007000070E0C8010E943E034091FC035091FD033C
:10071000BC01C8010E943E034091FA035091FB03C3
:10072000BC01C8010E945F0347E551E0BC01C8015C
:100730000E943E034091F8035091F903BC01C801A7
:100740000E943E034AE251E0BC01C8010E943E0300
:1007500072C044E251E060E070E0C8010E943E03D4
:100760004091FC035091FD03BC01C8010E943E036F
:100770004091FA035091FB03BC01C8010E945F0342
:1007800042E151E0BC01C8010E943E034091F803E0
:100790005091F903BC01C8010E943E03E09000049F
:1007A000F0900104E114F10459F04FE051E0BC0174
:1007B000C8010E943E03A701BC01C8010E943E037C
:1007C0004AEE50E0BC01C8010E943E0349ED50E0F2
:1007D000BC01C8010E943E037C01A091FE03B091C0
:1007E000FF03FD0101900020E9F731974AE0BE01C7
:1007F0006F5F7F4FCF018A1B9B0B0E94D21100912C
:10080000F6031091F703AE014F5F5F4FB701C801C8
:100810000E945F0343EA50E0BC01C8010E943E030E
:100820004091FE035091FF03BC01C8010E945F0389
:1008300002C080E090E02596E6E00C947211A3E0FF
:10084000B0E0E5E2F4E00C9458118C014B8369832D
:100850007A830E9471024B81842F8061F80187A7FF
:1008600069817A81443029F06115710511F461E0E4
:1008700070E041E0C8010E94C302F801108A88E2DA
:10088000818BC8010E94990284E0F80180AB11AA13
:1008900042E06CE170E0C8014A960E949201F801C2
:1008A00092AB83ABB80186E390E00E940D0A2396D9
:1008B000E4E00C9474110F931F93CF93DF93EC013A
:1008C0008B01CB018896988B898BCE010E94840284
:1008D0001AAA1BAAB801645E7F4F42E0CE014A9675
:1008E0000E9492019AAB8BABBE01C801C6960E94D2
:1008F0000D0ADF91CF911F910F910895640F751F1D
:100900004617570741F0FA012491FC012193CF01CA
:100910004F5F5F4FF5CF0895A2E0B0E0E2E9F4E069
:100920000C9452115C01F62EE72E6A01EEE1F4E020
:10093000B5016A5F7F4FD8014D918D01DC014D9368
:10094000CD014191DB014D93BD01B4E0E432FB07E1
:1009500091F788E0F5018487158646E751E069E064
:1009600070E0C5010E9629833A830E947E0480912F
:100970000601D50153968C9353978F5F80930601A0
:1009800050961C92509781E157968C938601C50131
:100990004E96AAE1B4E03A812981F80141918F0194
:1009A000FC014193CF016D91AF0145505109FA010E
:1009B0006083F4E0AE31BF0781F7D50194963C9394
:1009C000949795962C9395979296EC9292979396EE
:1009D000FC92939796961C92969798961C9298974D
:1009E00099961C922296EAE00C946E110F931F9335
:1009F000CF93DF93EC018B01CB014C96898B988BC5
:100A0000CE010E948402C80108968FA39EA3B8015C
:100A1000605F7F4F41E0CE014A960E94920189A714
:100A200098A7BE01C8018A960E940D0ADF91CF9156
:100A30001F910F910895A0E0B0E0E1E2F5E00C9481
:100A40005111EC01B62EA72E942EB901A8019701E1
:100A500086010E948C04692D6D3D08F06CED9B2D84
:100A6000DE019A96EB2DFA2D8E2F891B861718F42E
:100A700081918D93F9CF70E0CE010E94F604CDB73D
:100A8000DEB7EBE00C946D110F931F93CF93DF93C0
:100A9000EC018B0180911A04882309F448C0CE012F
:100AA000AE014A5F5F4FEEE1F4E03FEFDC013D93C2
:100AB000CD012191DA012D93AD01B4E0E432FB07C1
:100AC000A9F788E08C8786E08D874EE651E068E0E4
:100AD00070E0CE010E960E947E04DE0190964EE1FB
:100AE00054E0FA012191AF01CD010A97FC01208366
:100AF0001D92F4E044325F07A1F7B801CE0186965B
:100B0000AAE1B4E0FB012191BF01FC012193CF01D7
:100B10004D919F012B503109F9014083F4E0AE3132
:100B2000BF0781F7BE018AE290E00E940D0ADF91C3
:100B3000CF911F910F91089581E09091F103923030
:100B400009F480E00895509344044093430421E065
:100B50002093F1036093F003E2EFF3E0DC012D91C9
:100B6000CD012193B3E0E63FFB07C1F70895FF9263
:100B70000F931F93CF93DF93EC01162F042FF52EC5
:100B8000EDE0F4E09C018EE194E0BE016A5F7F4FEE
:100B90004191D9014D939D01DC014D91CD01DB01C6
:100BA0004D93BD01B4E0E331FB0791F788E08C87FA
:100BB0001D8646E751E069E070E0CE010E960E9486
:100BC0007E048CE2898B809106018B8B8F5F8093F2
:100BD000060186E08F8B63E174E0DE015E968AE1B8
:100BE00094E0FB012191BF012D93FC014191CF01C4
:100BF0009D0125503109F9014083F4E067317F07F9
:100C000081F7CE010E948402FCA20DA38BE08AA38F
:100C10001BA3FE01B69688E011928150E9F78091FE
:100C20000E0188A78D5F80930E0180E68EA782E07B
:100C30008FA793E098AB19AA1AAA1BAA1CAA1DAAEF
:100C40008EAB94E09FAB88AF8EEE89AF42E060E25E
:100C500070E0CE014A960E9492019AAB8BABBE0126
:100C60008AE390E00E940D0ACDB7DEB7E5E00C9470
:100C700073110F931F93909309048093080470934A
:100C8000070460930604F901A3E1B4E081918D9318
:100C900084E0A731B807D1F7F801ADE0B4E0819165
:100CA0008D9384E0A331B807D1F750930B044093A0
:100CB0000A0481E080930C04809117048F5F8830D0
:100CC00018F48093170402C010921704809117043F
:100CD0001F910F910895A0E0B0E0E1E7F6E00C94D9
:100CE0004E11EC016B015A013901480187010E9444
:100CF000060A8823E9F0D093FD03C093FC03D09249
:100D0000FB03C092FA03B092F903A092F803109289
:100D100004047092030460920204940140E550E0E0
:100D20006BE673E087E391E00E9439068093050447
:100D3000CDB7DEB7EEE00C946A11A0E0B0E0E3EAD4
:100D4000F6E00C944C11EC014B013A0129010E9490
:100D5000060A882339F1D093FD03C093FC037092F7
:100D6000F9036092F8039092FB038092FA03509289
:100D70000104409200041093FF030093FE0381E0FE
:100D800080930404F0920304E0920204850196012A
:100D900040E550E06BE673E087E391E00E9439069E
:100DA00080930504CDB7DEB7E0E10C946811909311
:100DB0001904809318040895A1E0B0E0E2EEF6E093
:100DC0000C9454116C017B016115710509F054C03C
:100DD0008091F103893079F480910B0190910C019D
:100DE000892B49F40E94060A882329F062EF73E0F8
:100DF000C6010E9444058091F103813091F40E9464
:100E0000060A882371F062EF73E0C6010E94440570
:100E10008091F10388608093F10310920C0110928D
:100E20000B0180910B0190910C01019690930C01A4
:100E300080930B0180910C04813009F041C10E9424
:100E4000060A882309F43CC182E080930C04609177
:100E50000D016F5F60930D0140910A0450910B04E6
:100E60006F718091170420E2829FC0011124682BCA
:100E7000C6010E94B70524C10E943B02882359F194
:100E8000D60155968C91813019F4C6010E94D80282
:100E90008091F10383FF14C1F6011589123009F026
:100EA0000FC144E050E062EF73E0C6014C960E942F
:100EB000BA11892B09F004C1A6014A5E5F4FE09187
:100EC0004304F09144046091F00382EF93E00995AC
:100ED0001093F103F5C0B701C6010E9455028823A3
:100EE00009F4EEC0D60157968C915797813099F44A
:100EF00092968C91883009F0E3C0E0911804F0914B
:100F00001904309719F0C6014A960995B701C60130
:100F10000E940C03D5C0B6E3EB16F10408F4D0C070
:100F2000863009F0CDC0F60184A18B3009F0C8C02D
:100F3000D092F703C092F60363E174E0C6010E9409
:100F40002C02882309F4BCC0D6019F962C919F9750
:100F500022FF13C0E0910804F0910904309709F4CE
:100F600088C095968C9120E030E040E050E063E04E
:100F700082958695877009957CC0C60129830E9459
:100F800029038C0180910C042981823099F5822FEC
:100F900080712271223109F540E060E070E0C60105
:100FA0000E941F0488E1F60187A7E0910604F091F2
:100FB0000704309741F0D60193968C9182958695DF
:100FC0008770099502C080E090E023E020930C0434
:100FD000BC01C6010E945B0473C091E090930C04B5
:100FE000811104C0B8016F5F7F4F02C060E070E004
:100FF00044E063C08330A9F50115110591F184E047
:1010000080930C04E0910804F0910904309749F1B1
:10101000D6019E964C9142954F70B4E04B9FA00133
:101020001124C70108974E5D5F4F8417950708F498
:10103000AC01C801840F951FE816F90620F497014A
:10104000241B350B01C09801D60195968C9160E068
:101050008295869587700995882319F049E0B80133
:1010600020C090910C04F60187A5953021F484FFEF
:1010700027C086E01AC0963071F484FD04C0B80120
:101080006F5F7F4F02C060E070E044E0C6010E94E5
:101090001F0487E00AC080FF0BC0B8016F5F7F4F5D
:1010A00041E0C6010E941F0485E080930C0408C043
:1010B0000115110529F040E0B801C6010E941F0486
:1010C00080E090E02196E8E00C9470112A98962F29
:1010D0009F71982B9EBD0DB407FEFDCF1EBC0DB4B5
:1010E00007FEFDCF67FD03C02A9A8EB508951EBC8A
:1010F0000DB407FEFDCFF8CF2A986F71682B6EBD37
:101100000DB407FEFDCF4EBD0DB407FEFDCF2A9AEC
:101110000895FB012A982AE32EBD0DB407FEFDCFEA
:101120008E0F9F1FE817F90739F01EBC0DB407FE9C
:10113000FDCF2EB52193F6CF10822A9A08952A98D2
:101140002AE72EBD0DB407FEFDCF860F971F681747
:10115000790741F0FB012191BF012EBD0DB407FEBF
:10116000FDCFF5CF2A9A08951F93CF93DF93182FC1
:101170001076C12FD0E02091260430E0C217D307AB
:1011800089F043E06FE180EA0E947C08AE0185E0CF
:10119000559547958A95E1F76FE180E80E947C08B4
:1011A00010932604DF91CF911F910895A1E0B0E044
:1011B000ECEDF8E00C945A11682F69830E94B40892
:1011C000698180E00E9466082196E2E00C94761125
:1011D000A1E0B0E0EEEEF8E00C945911182F69830D
:1011E0000E94B4084981612F80E40E947C08219606
:1011F000E3E00C947511CF93682F84ED0E94E8080A
:1012000061E082ED0E94E8088AEE0E94D60880FD27
:10121000FBCF60E082ED0E94E80889ED0E94D608CD
:10122000C82F88ED0E94D6082C2F30E0322F2227BD
:10123000A901482BCA01CF910895A1E0B0E0E3E2F3
:10124000F9E00C945911162F682F84ED79830E94D0
:10125000E808612F86ED0E94E8087981672F87ED05
:101260000E94E80818E28AEE0E94D60880FF04C0B7
:10127000812F8A95F1F7F7CF2196E3E00C94751151
:10128000682F677085E70E94E8080895CF93DF9381
:10129000EC01229A2A9A84B1886284B924982B9806
:1012A0002D9880E58CBD8DB581608DBD4FEF60E0E0
:1012B0008FEF0E947C0880E090E00197F1F7109298
:1012C00025041092240460E088E00E94E80860E0B1
:1012D00089E00E94E80860E08CE00E94E80860E095
:1012E0008DE00E94E8086FEF8AE00E94E80869E15B
:1012F0008BE00E94E80860E084E00E94E8086AE170
:1013000085E00E94E8086FEF86E00E94E8086FE140
:1013100087E00E94E80860EB88E30E94E8086FE33A
:1013200088E20E94E80860E389E20E94E80869EF29
:1013300080E30E94E80867EF81E30E94E8086DE01F
:1013400080EC0E94E80860E081EC0E94E80842E33B
:1013500062EC80E80E947C0862E186EC0E94E8086A
:101360006CE087EC0E94E80862E184EC0E94E808E7
:101370006CED8AEC0E94E80865E08BEC0E94E808BE
:10138000688184EE0E94E808698185EE0E94E80881
:101390006A8182EE0E94E8086B8183EE0E94E80871
:1013A0006C8180EE0E94E8086D8181EE0E94E80861
:1013B00060E071E080E10E941D098FE10E94B408A5
:1013C00040EC6BE180E80E947C0844E06FE180E83B
:1013D0000E947C08DF91CF91089582E70E94D60891
:1013E000863008F08F5F089588E30E94D608682F42
:1013F000616088E30E94E808089588E30E94D608A7
:10140000682F6E7F88E30E94E808089581E10E94BA
:10141000FB0892FB882780F908950F931F93CF93C1
:10142000DF93EC018B016FE180E00E94660883FD91
:10143000FACF8CE10E94D60881FF13C040E86FE12B
:1014400080E80E947C0840E86FE180EA0E947C0806
:1014500042E06CE180EA0E947C0880E395E7019716
:10146000F1F760E082E00E94E8086AE183E00E9410
:10147000E8086C2F86E00E94E808CE01965E692F8E
:1014800087E00E94E80840E060E08AE70E947C086C
:10149000B801CE010E949F0848E06FE180E80E94F9
:1014A0007C08DF91CF911F910F91089589E30E94ED
:1014B000D60891E0811101C090E0892F0895A0E045
:1014C000B0E0E5E6FAE00C9451117C016B0189E390
:1014D0000E94D608882309F45CC060912404C0915E
:1014E000250480E00E94E8086C2F81E00E94E80853
:1014F00060E08AE30E946608082F60E08AE30E94A9
:10150000660810E0182B109325040093240460E073
:101510008AE30E946608C82F60E08AE30E9466089A
:10152000982E60E08AE30E946608A82EB12C60E045
:101530008AE30E946608A7FE0FC097012150310977
:10154000D0E0D92924972C173D0708F4E901B6010A
:10155000CE010E94890802C0C0E0D0E06FEF0130E8
:101560008AE118072CF08CE00E94E80869E107C0C6
:10157000600F8CE00E94E80801501109612F8DE096
:101580000E94E80840E46EE180E80E947C08CE01F9
:1015900002C080E090E0CDB7DEB7EBE00C946D11B7
:1015A000FB01982F9F709A3014F4905D01C0995AF6
:1015B000918382958F708A3014F4805D01C0895ABE
:1015C000808312820895AF92BF92DF92EF92FF92D2
:1015D0000F931F93CF93DF931F92CDB7DEB75B01BD
:1015E0008C0185E2D82EF80121918F012223F9F098
:1015F000C50101967C01203259F0822F992787FD81
:10160000909529830E949F112981892B11F405C08F
:101610002BE2F50120835701E6CFF501D082B70117
:10162000822F0E94D00AF3E0AF0EB11CDCCFF5018F
:1016300010820F90DF91CF911F910F91FF90EF904B
:10164000DF90BF90AF900895A5E0B0E0EAE2FBE044
:101650000C9454118C01FC011082118212821382AD
:101660007B0130E020E0F70141917F01442361F1EB
:101670003430D8F5233090F4842F992787FD909546
:10168000C0970A9748F4E1E0F0E0EC0FFD1FE20F8D
:10169000F11D40832F5F02C0222329F34E3219F738
:1016A000E1E0F0E0EC0FFD1FE20FF11D1082680198
:1016B000C30ED11CCE0101963D830E948111F6011B
:1016C00080833D813F5FCECF333079F4E1E0F0E0BD
:1016D000EC0FFD1FE20FF11D1082CE0101960E945A
:1016E0008111F801838380E001C081E02596E8E064
:1016F0000C9470118F929F92BF92CF92DF92EF92D3
:10170000FF920F931F93CF93DF931F92CDB7DEB756
:101710007C01C42EB62E4B01D12C10E0882D8B19E4
:101720008C15C8F4F40181914F01A801B7016D0D2A
:10173000711D90E029830E94C7112981F701ED0DE9
:10174000F11D8081882311F0D394F8CF222331F347
:101750002083D394E3CFDA94F701ED0DF11D1082CD
:101760000F90DF91CF911F910F91FF90EF90DF903D
:10177000CF90BF909F908F90089580912C040895F2
:10178000809127040895E8E2F4E02191DC012D9393
:10179000CD01B4E0EC32FB07C1F7089550E040E022
:1017A000FC016191CF01662389F0262F332727FDA5
:1017B0003095205331092A30310530F06E3259F41A
:1017C000413049F45F5FEBCF41E0EACF413019F49B
:1017D00081E0533009F080E00895EF92FF920F937B
:1017E0001F93CF93DF93EC01F62EE72E8A01109220
:1017F0002C040E94060A811105C084E0809327040E
:1018000081E069C01092270480912D048F5F80933E
:101810002D04682F70E0706E25E330E04FE051E05A
:10182000CE010E948C0480912D048BA781E08CA7AF
:10183000FE01BD9683E011928F5F8C30E1F781E06D
:101840008FA7EF2DFE2D21E03CE04DE04F19642FD6
:101850006E0F5081862F90E0552391F05E3241F457
:10186000DE01A30FB11D21509A962C93362F20E054
:10187000DE01A80FB91F51919A965C932F5FE7CFB5
:10188000FE01E30FF11D215022A7FE01E80FF91F11
:1018900012A681E0860FFE01E80FF11D12A682E07C
:1018A000860FFE01E80FF11D81E082A793E0960FFD
:1018B000FE01E90FF11D12A694E0960FFE01E90F5B
:1018C000F11D82A789EF860F8AA76B5F70E0CE01BA
:1018D0000E94F60480E0CDB7DEB7E6E00C9472110A
:1018E000CF93DF93FC016634710508F466C083A1D1
:1018F000853309F062C084A1803E09F05EC085A1F5
:1019000090912D04891359C093A5981356C085A5AD
:101910008F78803811F081E039C022A5245F6153AF
:101920007109DF01A20FB11D9A968C91807C61F044
:101930002E5F0FC081E0820FDF01A80FB11D9A96C4
:101940009C919923A9F3282F822F90E0861797075F
:1019500088F3DF01A20FB11D9B968C919B9781307C
:1019600081F088E0820FDF01A80FB11D9B968C915A
:10197000265F280F822F90E08617970790F283E06A
:1019800005C0D3968C91843021F082E080932704A7
:1019900014C0265FA8E2B4E080E090E0E20FF11D01
:1019A000EF01C80FD91F2AA52D9301968430910508
:1019B000B9F781E080932C0401C080E0DF91CF91E2
:1019C0000895809142048F5F809342040895A6E0B9
:1019D000B0E0EDEEFCE00C9455117C01D62E86E0D3
:1019E000E5E1F1E0DE01119601900D928A95E1F7B3
:1019F0008E010F5F1F4F23E430E0A80164E470E024
:101A0000C7010E948C04F701128E138E148E158E5E
:101A100081E082A783A796E094A715A686A7D7A6FC
:101A2000D0AAD1AAF29684E111928150E9F7F70188
:101A3000EA5BFF4FDF01A054B1099C9191938F5F46
:101A40008630C1F7F701E45BFF4F82E211928F5FAE
:101A50008C3EE1F7F701EA5EFE4F83E68083319624
:101A600092E89083319693E5908331968083269611
:101A7000E7E00C947111CF93DF93EC010E94E70C27
:101A8000FE01E65EFE4F85E38083319681E0808330
:101A900031968083319697E39083319692E09083DC
:101AA00031968083319683E0808331968FEF8083F7
:101AB0003196108268EF70E0CE010E94F60480E05B
:101AC000DF91CF9108956D3121E0720700F12AE195
:101AD00031E0A9014E5F5F4F46175707C0F4FC0184
:101AE000E20FF31FA181AA2391F02A0F311DD90122
:101AF00011966A177B0758F0E081E53329F4FC0161
:101B0000E40FF51F808108952E5F3F4FE2CF80E004
:101B100008956F3F710599F090F0FC0122AD2223EA
:101B200071F082AD93ADA4ADB5AD80933E049093BA
:101B30003F04A0934004B093410481E0089580E005
:101B40000895FC016F3F710569F060F083A1833453
:101B500049F482A5823031F497A5941303C081E043
:101B600020A9291380E00895FC016F3F710529F039
:101B700020F081E096A5923009F080E00895A0E081
:101B8000B0E0E5ECFDE00C945011EB016D3111E09B
:101B9000710708F4CEC020912E0430912F04D0900C
:101BA000310440E050E0BA01EAE1F1E04F0112E017
:101BB000810E911C8C169D0658F47F01AFEFEA1A36
:101BC000FA0A8C010E0D1F1DD801BC90B11008C07F
:101BD00030932F0420932E04D092310481E0AAC0C8
:101BE0000B2D10E0E00EF11ECE15DF0588F37C0111
:101BF000EE0EFF1ED701CC90B3E0CB1659F1BC1509
:101C000038F0CC2009F486C0A1E0CA1669F08CC077
:101C1000B5E3CB1609F463C0A6E3CA1609F464C0A1
:101C2000B3E3CB1281C02CC0A4E0BA127DC07C010A
:101C3000E80CF91CA6E3AA2EA4E0BA2ED701CD9099
:101C40007D01D501CD925D01BAE3AB16B4E0BB06D0
:101C5000A9F76AC0A4E0BA1267C07C01E80CF91CBD
:101C6000BAE3AB2EB4E0BB2ED701CD907D01D501F8
:101C7000CD925D01BEE3AB16B4E0BB06A9F754C03C
:101C800024E0B21249C020E030E0762F652F542FB7
:101C90004427D701A20FB31F1296AC914A2B2F5F96
:101CA0003F4F2430310589F74F3FAFEF5A076A079E
:101CB0007A07A9F1B6E07695679557954795BA9555
:101CC000D1F74E3FBFEF5B076105710528F4453042
:101CD000510540F19A0128C02DEF3FEF25C0D401F6
:101CE000A80FB91FDC9020C0A4E0BA121DC07C016F
:101CF000E80CF91CA2E3AA2EA4E0BA2ED701CD90DD
:101D00007D01D501CD925D01B6E3AB16B4E0BB0613
:101D1000A9F70AC0FE0108C020EA35E005C02FEF90
:101D20003FEF02C025E030E00E5F1F4FE00FF11FD4
:101D30003DCF80E0CDB7DEB7ECE00C946C11CF93D3
:101D4000DF93EC010E94E70CFE01E65EFE4F85E3A7
:101D50008083319681E08083319683E08083809117
:101D600032048823A9F086E33196808384E031969B
:101D70008083409132045091330460913404709117
:101D800035043196408351836283738329E001C017
:101D900023E080913E048823C9F0CE01820F911D7B
:101DA000FC01E65EFE4F32E33083319634E030834F
:101DB000319640913E0450913F04609140047091EF
:101DC000410440835183628373832A5F622F70E0F2
:101DD000CE01860F971FFC01E65EFE4F27E32083AE
:101DE000319622E02083319621E02083319623E052
:101DF000208331962FEF2083319610826B507F4FD6
:101E0000CE010E94F60480E0DF91CF910895EF9219
:101E1000FF920F931F93CF93DF93EC017A010E94FF
:101E2000E70C82E08EA7F7010081118122813381C6
:101E30000A8F1B8F2C8F3D8F40815181628173816E
:101E40004EAB5FAB68AF79AFFE01E65EFE4F85E358
:101E50008083319681E08083319683E0808363EFD5
:101E600070E0CE010E94F60480E0CDB7DEB7E6E078
:101E70000C947211CF92DF92FF920F931F93CF9326
:101E8000DF931F92CDB7DEB76C018B0149830E94AF
:101E9000060A4981882309F469C00115110591F5E5
:101EA00080911301909114018230910559F481E0E1
:101EB00090E0909314018093130110924204409398
:101EC00030040FC020913E04211113C02091420420
:101ED000263078F0809130048F5F80933004109228
:101EE00042040E94F40960913004C6010E943B0D37
:101EF0003DC083309105D0F10197909314018093F8
:101F0000130134C0F09030044F2DB801C6010E9477
:101F1000A10D882359F1B801C6010E94B40D81308A
:101F200029F1B801C6010E94630D823099F481E065
:101F300090E09093140180931301B801C6010E94B0
:101F4000890DB801C6010E94BF0D6F2DC6010E9408
:101F50009F0E0CC0853051F481E090E09093140105
:101F6000809313010E94FD0981E001C080E00F9081
:101F7000DF91CF911F910F91FF90DF90CF90089547
:101F80000F931F93009769F000913E0410913F0456
:101F90002091400430914104FC010083118322838D
:101FA00033836115710569F080913604909137048F
:101FB000A0913804B0913904FB0180839183A283FE
:101FC000B3834115510569F080913A0490913B0427
:101FD000A0913C04B0913D04FA0180839183A283D7
:101FE000B3831F910F9108950F931F93CF93DF93A6
:101FF0008C01EB0180914204893088F010924204F8
:1020000080912E0490912F049C01225031092D3F84
:102010003F4F28F4019790932F0480932E0420972C
:10202000D9F480912E0490912F04039768F50E94B3
:10203000060A882349F1609130046F5F6093300491
:102040004EE354E0C8010E94070F85E090E09093B2
:102050002F0480932E0418C040913004BE01C801A3
:102060000E94A10D882399F0BE01C8010E94630D52
:10207000853051F4BE01C8010E94B40D882321F0BF
:10208000BE01C8010E94BF0D80E090E001C0CE01FA
:10209000DF91CF911F910F910895A4E1B0E0E3E5A6
:1020A000F0E10C945411219A2998509A589A80E89A
:1020B000809361001092610080E08A95F1F780E0E2
:1020C00091E00E94460982E00E94400980E08A95E2
:1020D000F1F70E942401789466E774E084E10E949D
:1020E0001D0956985E9A299880E091E00E94EF01C0
:1020F0006FE271E08AE892E00E945F0A1092B903F1
:1021000040910501BC018FE291E00E943A0F8823C3
:1021100079F344EE53E06AED73E088EE93E00E94B9
:10212000C00F6AED73E088EE93E00E94FA01299AED
:102130008091E403811102C05898FFCF299844EEA2
:1021400050E061E084EE93E00E94A3050E949C05AC
:10215000882361F06FE271E08AE892E00E945F0AF2
:10216000BC018FE291E00E94DC06F0CF299ADD24C9
:10217000D39492E0C92E6FE271E08AE892E00E9467
:102180005F0A1092B903BC018FE291E00E94F40F44
:102190008C01BC018FE291E00E94DC060115110563
:1021A00009F06FC080912C01811112C00E94060AB3
:1021B000882309F31092BA03D0922C014EED53E01C
:1021C0006BE171E08FE291E00E94ED0B2998D3CF93
:1021D000813059F40E94BD0B882339F0C0922C0144
:1021E0008CEE93E00E94C30B299A80912C018230DF
:1021F00041F08091BA038D3308F4BDCF10922C01C9
:10220000BACF90912E01913049F529981092BA03D6
:1022100080932E0180912D018F5F80932D010AE024
:102220002EE244E068EE73E0CE0101960E947A0B44
:102230006CEB73E0CE0101960E94E30A8EEDE82E6E
:1022400083E0F82E0CEE13E02FED30E043E950E090
:102250006CEB73E088E690E00E946B068091BA0315
:10226000893030F080912E01823011F410922E01CD
:102270004E9981CF80912E0181117DCFD0922E0178
:102280007ACF892B09F077CFB8018FE291E00E94D5
:10229000700C71CF2F923F924F925F926F927F920C
:1022A0008F929F92AF92BF92CF92DF92EF92FF9266
:1022B0000F931F93CF93DF93CDB7DEB7CA1BDB0B12
:1022C0000FB6F894DEBF0FBECDBF09942A883988B7
:1022D00048885F846E847D848C849B84AA84B984BE
:1022E000C884DF80EE80FD800C811B81AA81B981CA
:1022F000CE0FD11D0FB6F894DEBF0FBECDBFED01DE
:102300000895FC0188279927E89421912032E9F368
:10231000293010F02E30C8F32B3241F02D3239F431
:10232000689404C00E94DD11820F911D21912053F9
:102330002A30C0F31EF4909581959F4F0895911116
:1023400006C080538A5010F0865C06C00895992715
:102350008827089585FDFBCF80629111F8CF8156C3
:102360008A51E0F708959111F2CF803211F089304F
:10237000D9F70895FB01DC0104C08D91019080190B
:1023800021F441505040C8F7881B990B08954532FD
:10239000510520F4423010F00C94D211FB01108250
:1023A000CB010895BB274A3031F4992322F4BDE2D2
:1023B000909581959F4F0C94E6117AE0979F902D10
:1023C000879F802D910D11240895BB27FB01552770
:1023D000AA27880F991FAA1FA41710F0A41B839582
:1023E0005051B9F7A05DAA3308F0A95DA1930097F9
:1023F00079F7B111B1931192CB010C94FF11DC016B
:10240000FC01672F71917723E1F7329704C07C912B
:102410006D9370836291AE17BF07C8F30895F89467
:02242000FFCFEC
:1024220054555810002902FFFFFFFF0100010A085E
:10243200080808FF5FFFFFFFFFFFFF7475786772F0
:0C2442006170686963732E6F72670000A0
:00000001FF
